{
  "address": "0x2CD92Cfe75EC9817436bdc9289d1B9DD2C0D8b80",
  "abi": [
    {
      "inputs": [],
      "stateMutability": "nonpayable",
      "type": "constructor"
    },
    {
      "inputs": [],
      "name": "chooseWinner",
      "outputs": [],
      "stateMutability": "nonpayable",
      "type": "function"
    },
    {
      "inputs": [],
      "name": "enter",
      "outputs": [],
      "stateMutability": "payable",
      "type": "function"
    },
    {
      "inputs": [],
      "name": "getPlayers",
      "outputs": [
        {
          "internalType": "address payable[]",
          "name": "",
          "type": "address[]"
        }
      ],
      "stateMutability": "view",
      "type": "function"
    },
    {
      "inputs": [],
      "name": "getPotBalance",
      "outputs": [
        {
          "internalType": "uint256",
          "name": "",
          "type": "uint256"
        }
      ],
      "stateMutability": "view",
      "type": "function"
    },
    {
      "inputs": [],
      "name": "getRandomNumber",
      "outputs": [
        {
          "internalType": "uint256",
          "name": "",
          "type": "uint256"
        }
      ],
      "stateMutability": "view",
      "type": "function"
    },
    {
      "inputs": [
        {
          "internalType": "uint256",
          "name": "gameId",
          "type": "uint256"
        }
      ],
      "name": "getWinnerByLotteryId",
      "outputs": [
        {
          "internalType": "address payable",
          "name": "",
          "type": "address"
        }
      ],
      "stateMutability": "view",
      "type": "function"
    },
    {
      "inputs": [],
      "name": "lotteryId",
      "outputs": [
        {
          "internalType": "uint256",
          "name": "",
          "type": "uint256"
        }
      ],
      "stateMutability": "view",
      "type": "function"
    },
    {
      "inputs": [],
      "name": "owner",
      "outputs": [
        {
          "internalType": "address",
          "name": "",
          "type": "address"
        }
      ],
      "stateMutability": "view",
      "type": "function"
    },
    {
      "inputs": [
        {
          "internalType": "uint256",
          "name": "",
          "type": "uint256"
        }
      ],
      "name": "pastWinners",
      "outputs": [
        {
          "internalType": "address payable",
          "name": "",
          "type": "address"
        }
      ],
      "stateMutability": "view",
      "type": "function"
    },
    {
      "inputs": [
        {
          "internalType": "uint256",
          "name": "",
          "type": "uint256"
        }
      ],
      "name": "players",
      "outputs": [
        {
          "internalType": "address payable",
          "name": "",
          "type": "address"
        }
      ],
      "stateMutability": "view",
      "type": "function"
    },
    {
      "inputs": [],
      "name": "resetLottery",
      "outputs": [],
      "stateMutability": "nonpayable",
      "type": "function"
    },
    {
      "inputs": [
        {
          "internalType": "address",
          "name": "newOwner",
          "type": "address"
        }
      ],
      "name": "transferOwnership",
      "outputs": [],
      "stateMutability": "nonpayable",
      "type": "function"
    }
  ],
  "transactionHash": "0x7123300bbb13ca75e81aa6b82808c349ceeadc04b76fa355c4bf0b5ef42c1e40",
  "args": [],
  "numDeployments": 2,
  "solcInputHash": "cc4b68c3a2f9c70512a07410a090392f",
  "bytecode": "0x6080604052348015600f57600080fd5b50600080546001600160a01b03191633178155600255610720806100346000396000f3fe6080604052600436106100a75760003560e01c8063dbdff2c111610064578063dbdff2c11461018a578063e499e79c1461019f578063e580f47b146101d5578063e97dcb62146101eb578063f2fde38b146101f3578063f71d96cb1461021357600080fd5b806371e8fb57146100ac5780638b5b9ccc146100ce5780638da5cb5b146100f0578063992f7db314610128578063cd38aa871461015e578063d337616e14610175575b600080fd5b3480156100b857600080fd5b50475b6040519081526020015b60405180910390f35b3480156100da57600080fd5b506100e3610233565b6040516100c591906105f6565b3480156100fc57600080fd5b50600054610110906001600160a01b031681565b6040516001600160a01b0390911681526020016100c5565b34801561013457600080fd5b50610110610143366004610642565b6000908152600360205260409020546001600160a01b031690565b34801561016a57600080fd5b50610173610295565b005b34801561018157600080fd5b506101736103fd565b34801561019657600080fd5b506100bb610434565b3480156101ab57600080fd5b506101106101ba366004610642565b6003602052600090815260409020546001600160a01b031681565b3480156101e157600080fd5b506100bb60025481565b61017361047c565b3480156101ff57600080fd5b5061017361020e36600461065b565b6104d2565b34801561021f57600080fd5b5061011061022e366004610642565b610552565b6060600180548060200260200160405190810160405280929190818152602001828054801561028b57602002820191906000526020600020905b81546001600160a01b0316815260019091019060200180831161026d575b5050505050905090565b6000546001600160a01b031633146102ac57600080fd5b6001546000906102ba610434565b6102c4919061068b565b90506000600182815481106102db576102db6106ad565b60009182526020822001546040516001600160a01b039091169147919081818185875af1925050503d806000811461032f576040519150601f19603f3d011682016040523d82523d6000602084013e610334565b606091505b505090508061037d5760405162461bcd60e51b815260206004820152601060248201526f2a3930b739b332b9103330b4b632b21760811b60448201526064015b60405180910390fd5b60018281548110610390576103906106ad565b600091825260208083209091015460028054845260039092526040832080546001600160a01b0319166001600160a01b039092169190911790558054916103d6836106c3565b909155505060408051600081526020810191829052516103f89160019161057c565b505050565b6000546001600160a01b0316331461041457600080fd5b60408051600081526020810191829052516104319160019161057c565b50565b6000805460405160609190911b6bffffffffffffffffffffffff191660208201524260348201526054016040516020818303038152906040528051906020012060001c905090565b662386f26fc10000341161048f57600080fd5b6001805480820182556000919091527fb10e2d527612073b26eecdfd717e6a320cf44b4afac2b0732d9fcbe2b7fa0cf60180546001600160a01b03191633179055565b6000546001600160a01b031633146104e957600080fd5b6001600160a01b0381166105305760405162461bcd60e51b815260206004820152600e60248201526d4976616c6964206164647265737360901b6044820152606401610374565b600080546001600160a01b0319166001600160a01b0392909216919091179055565b6001818154811061056257600080fd5b6000918252602090912001546001600160a01b0316905081565b8280548282559060005260206000209081019282156105d1579160200282015b828111156105d157825182546001600160a01b0319166001600160a01b0390911617825560209092019160019091019061059c565b506105dd9291506105e1565b5090565b5b808211156105dd57600081556001016105e2565b602080825282518282018190526000918401906040840190835b818110156106375783516001600160a01b0316835260209384019390920191600101610610565b509095945050505050565b60006020828403121561065457600080fd5b5035919050565b60006020828403121561066d57600080fd5b81356001600160a01b038116811461068457600080fd5b9392505050565b6000826106a857634e487b7160e01b600052601260045260246000fd5b500690565b634e487b7160e01b600052603260045260246000fd5b6000600182016106e357634e487b7160e01b600052601160045260246000fd5b506001019056fea2646970667358221220db20cc63408d8de94ed426aadb508703704b64466bb98f80ad670e1f12cb750f64736f6c634300081e0033",
  "devdoc": {
    "kind": "dev",
    "methods": {},
    "version": 1
  },
  "userdoc": {
    "kind": "user",
    "methods": {},
    "version": 1
  },
  "storageLayout": {
    "storage": [
      {
        "astId": 3,
        "contract": "contracts/lottery.sol:Lottery",
        "label": "owner",
        "offset": 0,
        "slot": "0",
        "type": "t_address"
      },
      {
        "astId": 6,
        "contract": "contracts/lottery.sol:Lottery",
        "label": "players",
        "offset": 0,
        "slot": "1",
        "type": "t_array(t_address_payable)dyn_storage"
      },
      {
        "astId": 8,
        "contract": "contracts/lottery.sol:Lottery",
        "label": "lotteryId",
        "offset": 0,
        "slot": "2",
        "type": "t_uint256"
      },
      {
        "astId": 12,
        "contract": "contracts/lottery.sol:Lottery",
        "label": "pastWinners",
        "offset": 0,
        "slot": "3",
        "type": "t_mapping(t_uint256,t_address_payable)"
      }
    ],
    "types": {
      "t_address": {
        "encoding": "inplace",
        "label": "address",
        "numberOfBytes": "20"
      },
      "t_address_payable": {
        "encoding": "inplace",
        "label": "address payable",
        "numberOfBytes": "20"
      },
      "t_array(t_address_payable)dyn_storage": {
        "base": "t_address_payable",
        "encoding": "dynamic_array",
        "label": "address payable[]",
        "numberOfBytes": "32"
      },
      "t_mapping(t_uint256,t_address_payable)": {
        "encoding": "mapping",
        "key": "t_uint256",
        "label": "mapping(uint256 => address payable)",
        "numberOfBytes": "32",
        "value": "t_address_payable"
      },
      "t_uint256": {
        "encoding": "inplace",
        "label": "uint256",
        "numberOfBytes": "32"
      }
    }
  }
}