{
  "address": "0x9620A388EEcD51865e93773Ff58DcBD54417e498",
  "abi": [
    {
      "inputs": [],
      "stateMutability": "nonpayable",
      "type": "constructor"
    },
    {
      "inputs": [],
      "name": "chooseWinner",
      "outputs": [],
      "stateMutability": "nonpayable",
      "type": "function"
    },
    {
      "inputs": [],
      "name": "enter",
      "outputs": [],
      "stateMutability": "payable",
      "type": "function"
    },
    {
      "inputs": [],
      "name": "getPlayers",
      "outputs": [
        {
          "internalType": "address payable[]",
          "name": "",
          "type": "address[]"
        }
      ],
      "stateMutability": "view",
      "type": "function"
    },
    {
      "inputs": [],
      "name": "getPotBalance",
      "outputs": [
        {
          "internalType": "uint256",
          "name": "",
          "type": "uint256"
        }
      ],
      "stateMutability": "view",
      "type": "function"
    },
    {
      "inputs": [],
      "name": "getRandomNumber",
      "outputs": [
        {
          "internalType": "uint256",
          "name": "",
          "type": "uint256"
        }
      ],
      "stateMutability": "view",
      "type": "function"
    },
    {
      "inputs": [
        {
          "internalType": "uint256",
          "name": "gameId",
          "type": "uint256"
        }
      ],
      "name": "getWinnerByLotteryId",
      "outputs": [
        {
          "internalType": "address payable",
          "name": "",
          "type": "address"
        }
      ],
      "stateMutability": "view",
      "type": "function"
    },
    {
      "inputs": [],
      "name": "lotteryId",
      "outputs": [
        {
          "internalType": "uint256",
          "name": "",
          "type": "uint256"
        }
      ],
      "stateMutability": "view",
      "type": "function"
    },
    {
      "inputs": [],
      "name": "owner",
      "outputs": [
        {
          "internalType": "address",
          "name": "",
          "type": "address"
        }
      ],
      "stateMutability": "view",
      "type": "function"
    },
    {
      "inputs": [
        {
          "internalType": "uint256",
          "name": "",
          "type": "uint256"
        }
      ],
      "name": "pastWinners",
      "outputs": [
        {
          "internalType": "address payable",
          "name": "",
          "type": "address"
        }
      ],
      "stateMutability": "view",
      "type": "function"
    },
    {
      "inputs": [
        {
          "internalType": "uint256",
          "name": "",
          "type": "uint256"
        }
      ],
      "name": "players",
      "outputs": [
        {
          "internalType": "address payable",
          "name": "",
          "type": "address"
        }
      ],
      "stateMutability": "view",
      "type": "function"
    },
    {
      "inputs": [],
      "name": "resetLottery",
      "outputs": [],
      "stateMutability": "nonpayable",
      "type": "function"
    },
    {
      "inputs": [
        {
          "internalType": "address",
          "name": "newOwner",
          "type": "address"
        }
      ],
      "name": "transferOwnership",
      "outputs": [],
      "stateMutability": "nonpayable",
      "type": "function"
    }
  ],
  "transactionHash": "0x1718c7f56a3ae1df6387b06ebf9b4c3e45239c6c871718532bf9cc12b56d26df",
  "args": [],
  "numDeployments": 1,
  "solcInputHash": "cec3c130e87f752665c47fce1efac5a4",
  "bytecode": "0x6080604052348015600f57600080fd5b50600080546001600160a01b0319163317815560025561068e806100346000396000f3fe6080604052600436106100a75760003560e01c8063dbdff2c111610064578063dbdff2c11461018a578063e499e79c1461019f578063e580f47b146101d5578063e97dcb62146101eb578063f2fde38b146101f3578063f71d96cb1461023057600080fd5b806371e8fb57146100ac5780638b5b9ccc146100ce5780638da5cb5b146100f0578063992f7db314610128578063cd38aa871461015e578063d337616e14610175575b600080fd5b3480156100b857600080fd5b50475b6040519081526020015b60405180910390f35b3480156100da57600080fd5b506100e3610250565b6040516100c59190610564565b3480156100fc57600080fd5b50600054610110906001600160a01b031681565b6040516001600160a01b0390911681526020016100c5565b34801561013457600080fd5b506101106101433660046105b0565b6000908152600360205260409020546001600160a01b031690565b34801561016a57600080fd5b506101736102b2565b005b34801561018157600080fd5b50610173610402565b34801561019657600080fd5b506100bb610422565b3480156101ab57600080fd5b506101106101ba3660046105b0565b6003602052600090815260409020546001600160a01b031681565b3480156101e157600080fd5b506100bb60025481565b61017361046a565b3480156101ff57600080fd5b5061017361020e3660046105c9565b600080546001600160a01b0319166001600160a01b0392909216919091179055565b34801561023c57600080fd5b5061011061024b3660046105b0565b6104c0565b606060018054806020026020016040519081016040528092919081815260200182805480156102a857602002820191906000526020600020905b81546001600160a01b0316815260019091019060200180831161028a575b5050505050905090565b6001546000906102c0610422565b6102ca91906105f9565b90506000600182815481106102e1576102e161061b565b60009182526020822001546040516001600160a01b039091169147919081818185875af1925050503d8060008114610335576040519150601f19603f3d011682016040523d82523d6000602084013e61033a565b606091505b50509050806103825760405162461bcd60e51b815260206004820152601060248201526f2a3930b739b332b9103330b4b632b21760811b604482015260640160405180910390fd5b600182815481106103955761039561061b565b600091825260208083209091015460028054845260039092526040832080546001600160a01b0319166001600160a01b039092169190911790558054916103db83610631565b909155505060408051600081526020810191829052516103fd916001916104ea565b505050565b604080516000815260208101918290525161041f916001916104ea565b50565b6000805460405160609190911b6bffffffffffffffffffffffff191660208201524260348201526054016040516020818303038152906040528051906020012060001c905090565b662386f26fc10000341161047d57600080fd5b6001805480820182556000919091527fb10e2d527612073b26eecdfd717e6a320cf44b4afac2b0732d9fcbe2b7fa0cf60180546001600160a01b03191633179055565b600181815481106104d057600080fd5b6000918252602090912001546001600160a01b0316905081565b82805482825590600052602060002090810192821561053f579160200282015b8281111561053f57825182546001600160a01b0319166001600160a01b0390911617825560209092019160019091019061050a565b5061054b92915061054f565b5090565b5b8082111561054b5760008155600101610550565b602080825282518282018190526000918401906040840190835b818110156105a55783516001600160a01b031683526020938401939092019160010161057e565b509095945050505050565b6000602082840312156105c257600080fd5b5035919050565b6000602082840312156105db57600080fd5b81356001600160a01b03811681146105f257600080fd5b9392505050565b60008261061657634e487b7160e01b600052601260045260246000fd5b500690565b634e487b7160e01b600052603260045260246000fd5b60006001820161065157634e487b7160e01b600052601160045260246000fd5b506001019056fea2646970667358221220d48d3cdd835d679b515952dcc7abff4c7f28fb8c641af84887748fd344e7468064736f6c634300081e0033",
  "devdoc": {
    "kind": "dev",
    "methods": {},
    "version": 1
  },
  "userdoc": {
    "kind": "user",
    "methods": {},
    "version": 1
  },
  "storageLayout": {
    "storage": [
      {
        "astId": 3,
        "contract": "contracts/lottery.sol:Lottery",
        "label": "owner",
        "offset": 0,
        "slot": "0",
        "type": "t_address"
      },
      {
        "astId": 6,
        "contract": "contracts/lottery.sol:Lottery",
        "label": "players",
        "offset": 0,
        "slot": "1",
        "type": "t_array(t_address_payable)dyn_storage"
      },
      {
        "astId": 8,
        "contract": "contracts/lottery.sol:Lottery",
        "label": "lotteryId",
        "offset": 0,
        "slot": "2",
        "type": "t_uint256"
      },
      {
        "astId": 12,
        "contract": "contracts/lottery.sol:Lottery",
        "label": "pastWinners",
        "offset": 0,
        "slot": "3",
        "type": "t_mapping(t_uint256,t_address_payable)"
      }
    ],
    "types": {
      "t_address": {
        "encoding": "inplace",
        "label": "address",
        "numberOfBytes": "20"
      },
      "t_address_payable": {
        "encoding": "inplace",
        "label": "address payable",
        "numberOfBytes": "20"
      },
      "t_array(t_address_payable)dyn_storage": {
        "base": "t_address_payable",
        "encoding": "dynamic_array",
        "label": "address payable[]",
        "numberOfBytes": "32"
      },
      "t_mapping(t_uint256,t_address_payable)": {
        "encoding": "mapping",
        "key": "t_uint256",
        "label": "mapping(uint256 => address payable)",
        "numberOfBytes": "32",
        "value": "t_address_payable"
      },
      "t_uint256": {
        "encoding": "inplace",
        "label": "uint256",
        "numberOfBytes": "32"
      }
    }
  }
}