{
  "address": "0x8A9f49D5812160a523A326eBd51a4359668B2c9b",
  "abi": [
    {
      "inputs": [
        {
          "internalType": "address",
          "name": "treasuryAddress",
          "type": "address"
        },
        {
          "internalType": "uint256",
          "name": "subscriptionId",
          "type": "uint256"
        },
        {
          "internalType": "address",
          "name": "vrfCoordinator",
          "type": "address"
        },
        {
          "internalType": "bytes32",
          "name": "keyHash",
          "type": "bytes32"
        },
        {
          "internalType": "uint256",
          "name": "defaultEntryFee",
          "type": "uint256"
        },
        {
          "internalType": "uint256",
          "name": "lotteryDuration",
          "type": "uint256"
        },
        {
          "internalType": "uint256",
          "name": "winnerCut",
          "type": "uint256"
        }
      ],
      "stateMutability": "nonpayable",
      "type": "constructor"
    },
    {
      "inputs": [],
      "name": "InsufficientFunds",
      "type": "error"
    },
    {
      "inputs": [],
      "name": "InvalidEntryTime",
      "type": "error"
    },
    {
      "inputs": [],
      "name": "InvalidTreasuryAddress",
      "type": "error"
    },
    {
      "inputs": [],
      "name": "LotteryDNE",
      "type": "error"
    },
    {
      "inputs": [],
      "name": "LotteryEnded",
      "type": "error"
    },
    {
      "inputs": [],
      "name": "LotteryNotEnded",
      "type": "error"
    },
    {
      "inputs": [],
      "name": "LotteryNotOpen",
      "type": "error"
    },
    {
      "inputs": [],
      "name": "LotteryNotStarted",
      "type": "error"
    },
    {
      "inputs": [],
      "name": "NotEnoughPlayers",
      "type": "error"
    },
    {
      "inputs": [
        {
          "internalType": "address",
          "name": "have",
          "type": "address"
        },
        {
          "internalType": "address",
          "name": "want",
          "type": "address"
        }
      ],
      "name": "OnlyCoordinatorCanFulfill",
      "type": "error"
    },
    {
      "inputs": [
        {
          "internalType": "address",
          "name": "have",
          "type": "address"
        },
        {
          "internalType": "address",
          "name": "owner",
          "type": "address"
        },
        {
          "internalType": "address",
          "name": "coordinator",
          "type": "address"
        }
      ],
      "name": "OnlyOwnerOrCoordinator",
      "type": "error"
    },
    {
      "inputs": [],
      "name": "ReentrancyGuardReentrantCall",
      "type": "error"
    },
    {
      "inputs": [],
      "name": "RequestNotTimedOut",
      "type": "error"
    },
    {
      "inputs": [],
      "name": "ZeroAddress",
      "type": "error"
    },
    {
      "anonymous": false,
      "inputs": [
        {
          "indexed": false,
          "internalType": "address",
          "name": "vrfCoordinator",
          "type": "address"
        }
      ],
      "name": "CoordinatorSet",
      "type": "event"
    },
    {
      "anonymous": false,
      "inputs": [
        {
          "indexed": true,
          "internalType": "uint256",
          "name": "lotteryId",
          "type": "uint256"
        },
        {
          "indexed": false,
          "internalType": "uint256",
          "name": "entryFee",
          "type": "uint256"
        },
        {
          "indexed": false,
          "internalType": "uint256",
          "name": "startTime",
          "type": "uint256"
        },
        {
          "indexed": false,
          "internalType": "uint256",
          "name": "endTime",
          "type": "uint256"
        }
      ],
      "name": "LotteryCreated",
      "type": "event"
    },
    {
      "anonymous": false,
      "inputs": [
        {
          "indexed": true,
          "internalType": "uint256",
          "name": "lotteryId",
          "type": "uint256"
        },
        {
          "indexed": true,
          "internalType": "address",
          "name": "user",
          "type": "address"
        },
        {
          "indexed": false,
          "internalType": "uint256",
          "name": "amount",
          "type": "uint256"
        }
      ],
      "name": "LotteryEntered",
      "type": "event"
    },
    {
      "anonymous": false,
      "inputs": [
        {
          "indexed": true,
          "internalType": "uint256",
          "name": "lotteryId",
          "type": "uint256"
        },
        {
          "indexed": false,
          "internalType": "uint256",
          "name": "requestId",
          "type": "uint256"
        }
      ],
      "name": "LotteryRefunded",
      "type": "event"
    },
    {
      "anonymous": false,
      "inputs": [
        {
          "indexed": true,
          "internalType": "uint256",
          "name": "lotteryId",
          "type": "uint256"
        },
        {
          "indexed": false,
          "internalType": "enum OmegaLottery.LotteryStatus",
          "name": "lotteryStatus",
          "type": "uint8"
        },
        {
          "indexed": false,
          "internalType": "uint256",
          "name": "timestamp",
          "type": "uint256"
        }
      ],
      "name": "LotteryStatusUpdated",
      "type": "event"
    },
    {
      "anonymous": false,
      "inputs": [
        {
          "indexed": true,
          "internalType": "address",
          "name": "from",
          "type": "address"
        },
        {
          "indexed": true,
          "internalType": "address",
          "name": "to",
          "type": "address"
        }
      ],
      "name": "OwnershipTransferRequested",
      "type": "event"
    },
    {
      "anonymous": false,
      "inputs": [
        {
          "indexed": true,
          "internalType": "address",
          "name": "from",
          "type": "address"
        },
        {
          "indexed": true,
          "internalType": "address",
          "name": "to",
          "type": "address"
        }
      ],
      "name": "OwnershipTransferred",
      "type": "event"
    },
    {
      "anonymous": false,
      "inputs": [
        {
          "indexed": true,
          "internalType": "uint256",
          "name": "lotteryId",
          "type": "uint256"
        },
        {
          "indexed": false,
          "internalType": "uint256",
          "name": "requestId",
          "type": "uint256"
        }
      ],
      "name": "RandomnessRequested",
      "type": "event"
    },
    {
      "anonymous": false,
      "inputs": [
        {
          "indexed": true,
          "internalType": "uint256",
          "name": "lotteryId",
          "type": "uint256"
        },
        {
          "indexed": true,
          "internalType": "address",
          "name": "user",
          "type": "address"
        },
        {
          "indexed": false,
          "internalType": "uint256",
          "name": "amount",
          "type": "uint256"
        }
      ],
      "name": "RefundFailed",
      "type": "event"
    },
    {
      "anonymous": false,
      "inputs": [
        {
          "indexed": true,
          "internalType": "uint256",
          "name": "lotteryId",
          "type": "uint256"
        },
        {
          "indexed": true,
          "internalType": "address",
          "name": "user",
          "type": "address"
        },
        {
          "indexed": false,
          "internalType": "uint256",
          "name": "amount",
          "type": "uint256"
        }
      ],
      "name": "RefundIssued",
      "type": "event"
    },
    {
      "anonymous": false,
      "inputs": [
        {
          "indexed": false,
          "internalType": "uint256",
          "name": "oldAmount",
          "type": "uint256"
        },
        {
          "indexed": false,
          "internalType": "uint256",
          "name": "newAmount",
          "type": "uint256"
        }
      ],
      "name": "WinnerCutUpdated",
      "type": "event"
    },
    {
      "anonymous": false,
      "inputs": [
        {
          "indexed": true,
          "internalType": "uint256",
          "name": "lotteryId",
          "type": "uint256"
        },
        {
          "indexed": true,
          "internalType": "address",
          "name": "user",
          "type": "address"
        },
        {
          "indexed": false,
          "internalType": "uint256",
          "name": "payout",
          "type": "uint256"
        },
        {
          "indexed": false,
          "internalType": "uint256",
          "name": "fee",
          "type": "uint256"
        },
        {
          "indexed": false,
          "internalType": "uint256",
          "name": "totalPot",
          "type": "uint256"
        }
      ],
      "name": "WinnerPaid",
      "type": "event"
    },
    {
      "anonymous": false,
      "inputs": [
        {
          "indexed": true,
          "internalType": "uint256",
          "name": "lotteryId",
          "type": "uint256"
        },
        {
          "indexed": true,
          "internalType": "address",
          "name": "user",
          "type": "address"
        }
      ],
      "name": "WinnerSelected",
      "type": "event"
    },
    {
      "inputs": [],
      "name": "_defaultEntryFee",
      "outputs": [
        {
          "internalType": "uint256",
          "name": "",
          "type": "uint256"
        }
      ],
      "stateMutability": "view",
      "type": "function"
    },
    {
      "inputs": [],
      "name": "_keyHash",
      "outputs": [
        {
          "internalType": "bytes32",
          "name": "",
          "type": "bytes32"
        }
      ],
      "stateMutability": "view",
      "type": "function"
    },
    {
      "inputs": [],
      "name": "_lotteryDuration",
      "outputs": [
        {
          "internalType": "uint256",
          "name": "",
          "type": "uint256"
        }
      ],
      "stateMutability": "view",
      "type": "function"
    },
    {
      "inputs": [],
      "name": "acceptOwnership",
      "outputs": [],
      "stateMutability": "nonpayable",
      "type": "function"
    },
    {
      "inputs": [],
      "name": "callbackGasLimit",
      "outputs": [
        {
          "internalType": "uint32",
          "name": "",
          "type": "uint32"
        }
      ],
      "stateMutability": "view",
      "type": "function"
    },
    {
      "inputs": [
        {
          "internalType": "bytes",
          "name": "",
          "type": "bytes"
        }
      ],
      "name": "checkUpkeep",
      "outputs": [
        {
          "internalType": "bool",
          "name": "upkeepNeeded",
          "type": "bool"
        },
        {
          "internalType": "bytes",
          "name": "performData",
          "type": "bytes"
        }
      ],
      "stateMutability": "view",
      "type": "function"
    },
    {
      "inputs": [
        {
          "internalType": "uint256",
          "name": "lotteryId",
          "type": "uint256"
        }
      ],
      "name": "getLottery",
      "outputs": [
        {
          "components": [
            {
              "internalType": "uint256",
              "name": "id",
              "type": "uint256"
            },
            {
              "internalType": "uint256",
              "name": "entryFee",
              "type": "uint256"
            },
            {
              "internalType": "uint256",
              "name": "startTime",
              "type": "uint256"
            },
            {
              "internalType": "uint256",
              "name": "endTime",
              "type": "uint256"
            },
            {
              "internalType": "uint256",
              "name": "totalPot",
              "type": "uint256"
            },
            {
              "internalType": "enum OmegaLottery.LotteryStatus",
              "name": "status",
              "type": "uint8"
            },
            {
              "internalType": "address",
              "name": "winner",
              "type": "address"
            },
            {
              "internalType": "uint256",
              "name": "randomValue",
              "type": "uint256"
            },
            {
              "internalType": "uint256",
              "name": "requestId",
              "type": "uint256"
            },
            {
              "internalType": "uint256",
              "name": "vrfRequestTime",
              "type": "uint256"
            }
          ],
          "internalType": "struct OmegaLottery.Lottery",
          "name": "lottery",
          "type": "tuple"
        }
      ],
      "stateMutability": "view",
      "type": "function"
    },
    {
      "inputs": [
        {
          "internalType": "uint256",
          "name": "lotteryId",
          "type": "uint256"
        }
      ],
      "name": "getLotteryStatusById",
      "outputs": [
        {
          "internalType": "enum OmegaLottery.LotteryStatus",
          "name": "status",
          "type": "uint8"
        }
      ],
      "stateMutability": "view",
      "type": "function"
    },
    {
      "inputs": [
        {
          "internalType": "uint256",
          "name": "lotteryId",
          "type": "uint256"
        }
      ],
      "name": "getPlayersByLotteryId",
      "outputs": [
        {
          "internalType": "address[]",
          "name": "players",
          "type": "address[]"
        }
      ],
      "stateMutability": "view",
      "type": "function"
    },
    {
      "inputs": [
        {
          "internalType": "uint256",
          "name": "lotteryId",
          "type": "uint256"
        }
      ],
      "name": "getRandomnessDetails",
      "outputs": [
        {
          "internalType": "uint256",
          "name": "requestId",
          "type": "uint256"
        },
        {
          "internalType": "uint256",
          "name": "randomValue",
          "type": "uint256"
        },
        {
          "internalType": "bytes32",
          "name": "vrfKeyHash",
          "type": "bytes32"
        },
        {
          "internalType": "uint256",
          "name": "subscriptionId",
          "type": "uint256"
        }
      ],
      "stateMutability": "view",
      "type": "function"
    },
    {
      "inputs": [
        {
          "internalType": "uint256",
          "name": "lotteryId",
          "type": "uint256"
        },
        {
          "internalType": "address",
          "name": "user",
          "type": "address"
        }
      ],
      "name": "getStakeByUserAddress",
      "outputs": [
        {
          "internalType": "uint256",
          "name": "",
          "type": "uint256"
        }
      ],
      "stateMutability": "view",
      "type": "function"
    },
    {
      "inputs": [],
      "name": "getTreasuryAddress",
      "outputs": [
        {
          "internalType": "address",
          "name": "",
          "type": "address"
        }
      ],
      "stateMutability": "view",
      "type": "function"
    },
    {
      "inputs": [],
      "name": "getWinnerCut",
      "outputs": [
        {
          "internalType": "uint256",
          "name": "",
          "type": "uint256"
        }
      ],
      "stateMutability": "view",
      "type": "function"
    },
    {
      "inputs": [
        {
          "internalType": "uint256",
          "name": "lotteryId",
          "type": "uint256"
        }
      ],
      "name": "joinLottery",
      "outputs": [],
      "stateMutability": "payable",
      "type": "function"
    },
    {
      "inputs": [],
      "name": "lastRequestId",
      "outputs": [
        {
          "internalType": "uint256",
          "name": "",
          "type": "uint256"
        }
      ],
      "stateMutability": "view",
      "type": "function"
    },
    {
      "inputs": [],
      "name": "lotteryIdCounter",
      "outputs": [
        {
          "internalType": "uint256",
          "name": "",
          "type": "uint256"
        }
      ],
      "stateMutability": "view",
      "type": "function"
    },
    {
      "inputs": [],
      "name": "numWords",
      "outputs": [
        {
          "internalType": "uint32",
          "name": "",
          "type": "uint32"
        }
      ],
      "stateMutability": "view",
      "type": "function"
    },
    {
      "inputs": [],
      "name": "owner",
      "outputs": [
        {
          "internalType": "address",
          "name": "",
          "type": "address"
        }
      ],
      "stateMutability": "view",
      "type": "function"
    },
    {
      "inputs": [
        {
          "internalType": "bytes",
          "name": "performData",
          "type": "bytes"
        }
      ],
      "name": "performUpkeep",
      "outputs": [],
      "stateMutability": "nonpayable",
      "type": "function"
    },
    {
      "inputs": [
        {
          "internalType": "uint256",
          "name": "requestId",
          "type": "uint256"
        },
        {
          "internalType": "uint256[]",
          "name": "randomWords",
          "type": "uint256[]"
        }
      ],
      "name": "rawFulfillRandomWords",
      "outputs": [],
      "stateMutability": "nonpayable",
      "type": "function"
    },
    {
      "inputs": [],
      "name": "requestConfirmations",
      "outputs": [
        {
          "internalType": "uint16",
          "name": "",
          "type": "uint16"
        }
      ],
      "stateMutability": "view",
      "type": "function"
    },
    {
      "inputs": [
        {
          "internalType": "uint256",
          "name": "",
          "type": "uint256"
        }
      ],
      "name": "requestToLottery",
      "outputs": [
        {
          "internalType": "uint256",
          "name": "",
          "type": "uint256"
        }
      ],
      "stateMutability": "view",
      "type": "function"
    },
    {
      "inputs": [],
      "name": "s_subscriptionId",
      "outputs": [
        {
          "internalType": "uint256",
          "name": "",
          "type": "uint256"
        }
      ],
      "stateMutability": "view",
      "type": "function"
    },
    {
      "inputs": [],
      "name": "s_vrfCoordinator",
      "outputs": [
        {
          "internalType": "contract IVRFCoordinatorV2Plus",
          "name": "",
          "type": "address"
        }
      ],
      "stateMutability": "view",
      "type": "function"
    },
    {
      "inputs": [
        {
          "internalType": "address",
          "name": "_vrfCoordinator",
          "type": "address"
        }
      ],
      "name": "setCoordinator",
      "outputs": [],
      "stateMutability": "nonpayable",
      "type": "function"
    },
    {
      "inputs": [
        {
          "internalType": "uint256",
          "name": "winnerCut",
          "type": "uint256"
        }
      ],
      "name": "setWinnerCut",
      "outputs": [],
      "stateMutability": "nonpayable",
      "type": "function"
    },
    {
      "inputs": [
        {
          "internalType": "address",
          "name": "to",
          "type": "address"
        }
      ],
      "name": "transferOwnership",
      "outputs": [],
      "stateMutability": "nonpayable",
      "type": "function"
    }
  ],
  "transactionHash": "0xa438e48b033eea92b44e9d67ca274e12d87a87aa4e02524fb3bd5345398b1be2",
  "args": [
    "0xAE543C89DE0166f17Ca1baD0f08da5Dda141730D",
    "61929715567171764477812404321678706382866709361907132046623015877255427485329",
    "0x9DdfaCa8183c41ad55329BdeeD9F6A8d53168B1B",
    "0x787d74caea10b2b357790d5b5247c2f63d1d91572a9846f780606e4d953677ae",
    "10000000000000000",
    3600,
    90
  ],
  "numDeployments": 1,
  "solcInputHash": "2955141fbfbc8153090a7b06238e8170",
  "bytecode": "0x60c0604052610258600d55348015610015575f5ffd5b506040516122a23803806122a283398101604081905261003491610312565b8433805f8161008a5760405162461bcd60e51b815260206004820152601860248201527f43616e6e6f7420736574206f776e657220746f207a65726f000000000000000060448201526064015b60405180910390fd5b5f80546001600160a01b0319166001600160a01b03848116919091179091558116156100b9576100b981610162565b5050506001600160a01b0381166100e35760405163d92e233d60e01b815260040160405180910390fd5b600280546001600160a01b03199081166001600160a01b03938416179091556001600381905560048054909216928a16929092179055600a879055600b859055600655600c80546001600160501b0319166601000300030d4017905560a08390526080829052600581905561015661020a565b505050505050506103e2565b336001600160a01b038216036101ba5760405162461bcd60e51b815260206004820152601760248201527f43616e6e6f74207472616e7366657220746f2073656c660000000000000000006044820152606401610081565b600180546001600160a01b0319166001600160a01b038381169182179092555f8054604051929316917fed8889f560326eb138920d842192f0eb3dd22b4f139c87a2c57538e05bae12789190a350565b600680545f918261021a83610387565b9091555060805190915042905f90610232908361039f565b5f8481526007602090815260409182902086815560a05160018201819055600282018790556003820185905560058201805460ff1916905583519081529182018690529181018390529192509084907f68b3cc7239912b7f66b9e2f9d93955382d1082297c9e6347beb37217f081650e9060600160405180910390a2600581015460405185917fb1cccbd310e718666203ac552a77cec64816a2c3bbb51dacc8d2f71b5e3c628e916102e99160ff169042906103b8565b60405180910390a250505050565b80516001600160a01b038116811461030d575f5ffd5b919050565b5f5f5f5f5f5f5f60e0888a031215610328575f5ffd5b610331886102f7565b60208901519097509550610347604089016102f7565b606089015160808a015160a08b015160c0909b0151999c989b5091999098919790965090945092505050565b634e487b7160e01b5f52601160045260245ffd5b5f6001820161039857610398610373565b5060010190565b808201808211156103b2576103b2610373565b92915050565b60408101600384106103d857634e487b7160e01b5f52602160045260245ffd5b9281526020015290565b60805160a051611e916104115f395f818161044b01526112d301525f818161047e01526112980152611e915ff3fe608060405260043610610195575f3560e01c80638da5cb5b116100e7578063c02d31a011610087578063e002460411610062578063e0024604146104f2578063f2fde38b1461050f578063f6172c611461052e578063fc2a88c31461056d575f5ffd5b8063c02d31a01461046d578063c7ce6714146104a0578063d29339f6146104b4575f5ffd5b80639eccacf6116100c25780639eccacf6146103c7578063ac7a70fb146103e6578063b0fb162f14610405578063b3dff9c31461043a575f5ffd5b80638da5cb5b1461034c5780638ea981171461037c57806392e845f61461039b575f5ffd5b80636e04ff0d116101525780637eee9fc11161012d5780637eee9fc1146102d957806380a6cc51146102ec57806381383636146103185780638ac0002114610337575f5ffd5b80636e04ff0d1461027257806379ba50971461029f5780637ccfd7fc146102b3575f5ffd5b806314da2b2e1461019957806315c6e123146101c15780631fe543e3146101ec57806324f746971461020d57806325595ce51461023e5780634585e33b14610253575b5f5ffd5b3480156101a4575f5ffd5b506101ae600b5481565b6040519081526020015b60405180910390f35b3480156101cc575f5ffd5b506101ae6101db366004611a2b565b600e6020525f908152604090205481565b3480156101f7575f5ffd5b5061020b610206366004611a42565b610582565b005b348015610218575f5ffd5b50600c546102299063ffffffff1681565b60405163ffffffff90911681526020016101b8565b348015610249575f5ffd5b506101ae60065481565b34801561025e575f5ffd5b5061020b61026d366004611abc565b6105d7565b34801561027d575f5ffd5b5061029161028c366004611abc565b610770565b6040516101b8929190611b58565b3480156102aa575f5ffd5b5061020b6108fa565b3480156102be575f5ffd5b50600c54610229906601000000000000900463ffffffff1681565b61020b6102e7366004611a2b565b6109a3565b3480156102f7575f5ffd5b5061030b610306366004611a2b565b610b26565b6040516101b89190611b7a565b348015610323575f5ffd5b5061020b610332366004611a2b565b610b8f565b348015610342575f5ffd5b506101ae600a5481565b348015610357575f5ffd5b505f546001600160a01b03165b6040516001600160a01b0390911681526020016101b8565b348015610387575f5ffd5b5061020b610396366004611be0565b610bd4565b3480156103a6575f5ffd5b506103ba6103b5366004611a2b565b610cc4565b6040516101b89190611c34565b3480156103d2575f5ffd5b50600254610364906001600160a01b031681565b3480156103f1575f5ffd5b506101ae610400366004611cbe565b610d8e565b348015610410575f5ffd5b50600c5461042790640100000000900461ffff1681565b60405161ffff90911681526020016101b8565b348015610445575f5ffd5b506101ae7f000000000000000000000000000000000000000000000000000000000000000081565b348015610478575f5ffd5b506101ae7f000000000000000000000000000000000000000000000000000000000000000081565b3480156104ab575f5ffd5b506005546101ae565b3480156104bf575f5ffd5b506104e56104ce366004611a2b565b5f9081526007602052604090206005015460ff1690565b6040516101b89190611ce8565b3480156104fd575f5ffd5b506004546001600160a01b0316610364565b34801561051a575f5ffd5b5061020b610529366004611be0565b610db7565b348015610539575f5ffd5b5061054d610548366004611a2b565b610dcb565b6040805194855260208501939093529183015260608201526080016101b8565b348015610578575f5ffd5b506101ae600f5481565b6002546001600160a01b031633146105c75760025460405163073e64fd60e21b81523360048201526001600160a01b0390911660248201526044015b60405180910390fd5b6105d2838383610ead565b505050565b6105df610f6f565b5f6105ec82840184611a2b565b5f8181526007602052604090209091506001600582015460ff16600281111561061757610617611c00565b0361068157600d54816008015461062e9190611d0a565b4210156106715760405162461bcd60e51b8152602060048201526011602482015270155c1ad9595c081b9bdd081b9959591959607a1b60448201526064016105be565b61067a82610f99565b5050610762565b60038101544210155f80600584015460ff1660028111156106a4576106a4611c00565b1490508180156106b15750805b6106f15760405162461bcd60e51b8152602060048201526011602482015270155c1ad9595c081b9bdd081b9959591959607a1b60448201526064016105be565b5f84815260086020526040812054908190036107535760058401805460ff1916600290811790915560405186915f516020611e3c5f395f51905f529161073991904290611d1d565b60405180910390a261074961127b565b5050505050610762565b61075c8561138d565b50505050505b61076c6001600355565b5050565b5f60605f60016006546107839190611d38565b9050805f036107a457505060408051602081019091525f80825291506108f3565b5f818152600760209081526040808320815161014081018352815481526001820154938101939093526002808201549284019290925260038101546060840152600481015460808401526005810154909160a084019160ff169081111561080d5761080d611c00565b600281111561081e5761081e611c00565b8152600582015461010090046001600160a01b03166020820152600682015460408201526007820154606082015260089091015460809091015290505f808260a00151600281111561087257610872611c00565b148015610883575081606001514210155b90505f60018360a00151600281111561089e5761089e611c00565b1480156108bd5750600d548361012001516108b99190611d0a565b4210155b905081806108c85750805b9550836040516020016108dd91815260200190565b6040516020818303038152906040529450505050505b9250929050565b6001546001600160a01b0316331461094d5760405162461bcd60e51b815260206004820152601660248201527526bab9ba10313290383937b837b9b2b21037bbb732b960511b60448201526064016105be565b5f8054336001600160a01b0319808316821784556001805490911690556040516001600160a01b0390921692909183917f8be0079c531659141344cd1fd0a4f28419497f9722a3daafe3b4186f6b6457e091a350565b5f818152600760205260408120908290036109d15760405163c050234760e01b815260040160405180910390fd5b80600201544210156109f657604051632b6d3c4360e11b815260040160405180910390fd5b80600301544210610a1a57604051639c89a6ed60e01b815260040160405180910390fd5b8060010154341015610a3f5760405163356680b760e01b815260040160405180910390fd5b5f600582015460ff166002811115610a5957610a59611c00565b14610a77576040516315ea643d60e21b815260040160405180910390fd5b5f828152600860209081526040822080546001810182559083529082200180546001600160a01b03191633179055600482018054349290610ab9908490611d0a565b90915550505f82815260096020908152604080832033845290915281208054349290610ae6908490611d0a565b9091555050604051348152339083907fd89b8985d462dcc0f343f72f43f1cfb87058fcbf847b83b81ca18ce204be941d9060200160405180910390a35050565b5f81815260086020908152604091829020805483518184028101840190945280845260609392830182828015610b8357602002820191905f5260205f20905b81546001600160a01b03168152600190910190602001808311610b65575b50505050509050919050565b600580549082905560408051828152602081018490527fe22dd7d029f09b2ad13a7dc92fed35db5f9b645f553f27b8a129e5f1cc149df7910160405180910390a15050565b5f546001600160a01b03163314801590610bf957506002546001600160a01b03163314155b15610c495733610c105f546001600160a01b031690565b60025460405163061db9c160e01b81526001600160a01b03938416600482015291831660248301529190911660448201526064016105be565b6001600160a01b038116610c705760405163d92e233d60e01b815260040160405180910390fd5b600280546001600160a01b0319166001600160a01b0383169081179091556040519081527fd1a6a14209a385a964d036e404cb5cfb71f4000cdb03c9366292430787261be69060200160405180910390a150565b610ccc61199a565b60075f8381526020019081526020015f20604051806101400160405290815f820154815260200160018201548152602001600282015481526020016003820154815260200160048201548152602001600582015f9054906101000a900460ff166002811115610d3d57610d3d611c00565b6002811115610d4e57610d4e611c00565b8152600582015461010090046001600160a01b03166020820152600682015460408201526007820154606082015260089091015460809091015292915050565b5f8281526009602090815260408083206001600160a01b03851684529091529020545b92915050565b610dbf611513565b610dc881611567565b50565b5f5f5f5f5f60075f8781526020019081526020015f20604051806101400160405290815f820154815260200160018201548152602001600282015481526020016003820154815260200160048201548152602001600582015f9054906101000a900460ff166002811115610e4157610e41611c00565b6002811115610e5257610e52611c00565b81526005820154610100908190046001600160a01b03166020830152600683015460408301526007830154606083015260089092015460809091015281015160e090910151600b54600a549299919850965090945092505050565b5f838152600e602090815260408083205480845260079092529091206001600582015460ff166002811115610ee457610ee4611c00565b14610f215760405162461bcd60e51b815260206004820152600d60248201526c496e76616c696420737461746560981b60448201526064016105be565b5f84845f818110610f3457610f34611d4b565b905060200201359050808260060181905550610f4f8361160f565b505f868152600e6020526040812055610f67836116e0565b505050505050565b600260035403610f9257604051633ee5aeb560e01b815260040160405180910390fd5b6002600355565b610fa1610f6f565b5f8181526007602081905260408220908101549091600583015460ff166002811115610fcf57610fcf611c00565b03610fed576040516301e2c20160e31b815260040160405180910390fd5b6002600583015460ff16600281111561100857611008611c00565b0361102657604051639c89a6ed60e01b815260040160405180910390fd5b600d5482600801546110389190611d0a565b42101561105857604051636c5b777b60e11b815260040160405180910390fd5b5f838152600860205260408120805490915b818110156111c2575f83828154811061108557611085611d4b565b5f9182526020808320909101548983526009825260408084206001600160a01b039092168085529190925291205490915080156111b8575f8881526009602090815260408083206001600160a01b03861680855292528083208390555183908381818185875af1925050503d805f811461111a576040519150601f19603f3d011682016040523d82523d5f602084013e61111f565b606091505b505090508061117157826001600160a01b0316897f6b047d8dc1f7b38d6f9a960ffc93bf185e2218056f75b0d410b2e64567f942a18460405161116491815260200190565b60405180910390a36111b6565b826001600160a01b0316897f7a482fdeb6bc9a1376f597068a214a7a39472bb2eff1b8cad21ba04f49ddca1b846040516111ad91815260200190565b60405180910390a35b505b505060010161106a565b5060058401805460ff191660029081179091555f600486015560405186915f516020611e3c5f395f51905f52916111fb91904290611d1d565b60405180910390a25f858152600860205260408120611219916119fd565b5f838152600e6020526040808220919091555185907f3a2e0fafa1963c117d897b59dbccc09a126a9b764e7758a4c9311a1a281217969061125d9086815260200190565b60405180910390a261126d61127b565b50505050610dc86001600355565b600680545f918261128b83611d5f565b909155509050425f6112bd7f000000000000000000000000000000000000000000000000000000000000000083611d0a565b5f848152600760209081526040918290208681557f000000000000000000000000000000000000000000000000000000000000000060018201819055600282018790556003820185905560058201805460ff1916905583519081529182018690529181018390529192509084907f68b3cc7239912b7f66b9e2f9d93955382d1082297c9e6347beb37217f081650e9060600160405180910390a2600581015460405185915f516020611e3c5f395f51905f529161137f9160ff16904290611d1d565b60405180910390a250505050565b5f818152600760205260409081902060058101805460ff191660019081179091559151909183915f516020611e3c5f395f51905f52916113ce914290611d1d565b60405180910390a26002546040805160c081018252600b548152600a54602080830191909152600c5461ffff6401000000008204168385015263ffffffff8082166060850152660100000000000090910416608083015282519081019092525f808352926001600160a01b031691639b1c385e919060a082019061145190611929565b8152506040518263ffffffff1660e01b81526004016114709190611d77565b6020604051808303815f875af115801561148c573d5f5f3e3d5ffd5b505050506040513d601f19601f820116820180604052508101906114b09190611dd3565b9050827f3d94fecedaa4f90b8bd459797adb95f5bb11426025c5541390d9ccc1ad1b60a1826040516114e491815260200190565b60405180910390a25f818152600e6020526040902092909255600f829055600781019190915542600890910155565b5f546001600160a01b031633146115655760405162461bcd60e51b815260206004820152601660248201527527b7363c9031b0b63630b1363290313c9037bbb732b960511b60448201526064016105be565b565b336001600160a01b038216036115bf5760405162461bcd60e51b815260206004820152601760248201527f43616e6e6f74207472616e7366657220746f2073656c6600000000000000000060448201526064016105be565b600180546001600160a01b0319166001600160a01b038381169182179092555f8054604051929316917fed8889f560326eb138920d842192f0eb3dd22b4f139c87a2c57538e05bae12789190a350565b5f81815260076020908152604080832060089092528220548083036116475760405163f770074360e01b815260040160405180910390fd5b5f8183600601546116589190611dfe565b5f8681526008602052604090208054919250908290811061167b5761167b611d4b565b5f918252602082200154600585018054610100600160a81b0319166101006001600160a01b03909316928302179055604051909550859187917f03fb57eb449654e24e1b240d3d06702cf79362a065d5c0323aee642d4702fa4b9190a3505050919050565b6116e8610f6f565b5f8181526007602052604081206005808201546004830154915492936101009091046001600160a01b0316926064906117219084611e11565b61172b9190611e28565b90505f6117388284611d38565b90505f846001600160a01b0316836040515f6040518083038185875af1925050503d805f8114611783576040519150601f19603f3d011682016040523d82523d5f602084013e611788565b606091505b50509050806117d25760405162461bcd60e51b815260206004820152601660248201527515da5b9b995c881d1c985b9cd9995c8819985a5b195960521b60448201526064016105be565b6004546040515f916001600160a01b03169084908381818185875af1925050503d805f811461181c576040519150601f19603f3d011682016040523d82523d5f602084013e611821565b606091505b50509050806118725760405162461bcd60e51b815260206004820152601860248201527f5472656173757279207472616e73666572206661696c6564000000000000000060448201526064016105be565b60408051858152602081018590529081018690526001600160a01b0387169089907ff30abe51ca5623e06f88b1b711114f2f33e8bdfc6f7909541aa3b17f26cd84ad9060600160405180910390a35f8881526008602052604081206118d6916119fd565b60058701805460ff1916600290811790915560405189915f516020611e3c5f395f51905f529161190891904290611d1d565b60405180910390a261191861127b565b50505050505050610dc86001600355565b60607f92fd13387c7fe7befbc38d303d6468778fb9731bc4583f17d92989c6fcfdeaaa8260405160240161196291511515815260200190565b60408051601f198184030181529190526020810180516001600160e01b03166001600160e01b03199093169290921790915292915050565b6040518061014001604052805f81526020015f81526020015f81526020015f81526020015f81526020015f60028111156119d6576119d6611c00565b81526020015f6001600160a01b031681526020015f81526020015f81526020015f81525090565b5080545f8255905f5260205f2090810190610dc891905b80821115611a27575f8155600101611a14565b5090565b5f60208284031215611a3b575f5ffd5b5035919050565b5f5f5f60408486031215611a54575f5ffd5b83359250602084013567ffffffffffffffff811115611a71575f5ffd5b8401601f81018613611a81575f5ffd5b803567ffffffffffffffff811115611a97575f5ffd5b8660208260051b8401011115611aab575f5ffd5b939660209190910195509293505050565b5f5f60208385031215611acd575f5ffd5b823567ffffffffffffffff811115611ae3575f5ffd5b8301601f81018513611af3575f5ffd5b803567ffffffffffffffff811115611b09575f5ffd5b856020828401011115611b1a575f5ffd5b6020919091019590945092505050565b5f81518084528060208401602086015e5f602082860101526020601f19601f83011685010191505092915050565b8215158152604060208201525f611b726040830184611b2a565b949350505050565b602080825282518282018190525f918401906040840190835b81811015611bba5783516001600160a01b0316835260209384019390920191600101611b93565b509095945050505050565b80356001600160a01b0381168114611bdb575f5ffd5b919050565b5f60208284031215611bf0575f5ffd5b611bf982611bc5565b9392505050565b634e487b7160e01b5f52602160045260245ffd5b60038110611c3057634e487b7160e01b5f52602160045260245ffd5b9052565b5f61014082019050825182526020830151602083015260408301516040830152606083015160608301526080830151608083015260a0830151611c7a60a0840182611c14565b5060c0830151611c9560c08401826001600160a01b03169052565b5060e083015160e083015261010083015161010083015261012083015161012083015292915050565b5f5f60408385031215611ccf575f5ffd5b82359150611cdf60208401611bc5565b90509250929050565b60208101610db18284611c14565b634e487b7160e01b5f52601160045260245ffd5b80820180821115610db157610db1611cf6565b60408101611d2b8285611c14565b8260208301529392505050565b81810381811115610db157610db1611cf6565b634e487b7160e01b5f52603260045260245ffd5b5f60018201611d7057611d70611cf6565b5060010190565b60208152815160208201526020820151604082015261ffff604083015116606082015263ffffffff606083015116608082015263ffffffff60808301511660a08201525f60a083015160c080840152611b7260e0840182611b2a565b5f60208284031215611de3575f5ffd5b5051919050565b634e487b7160e01b5f52601260045260245ffd5b5f82611e0c57611e0c611dea565b500690565b8082028115828204841417610db157610db1611cf6565b5f82611e3657611e36611dea565b50049056feb1cccbd310e718666203ac552a77cec64816a2c3bbb51dacc8d2f71b5e3c628ea2646970667358221220358f636ab23aa3547e03aa796d86d5ff48c2f47957ab82876ef6d196bf59c6f464736f6c634300081e0033",
  "devdoc": {
    "errors": {
      "ReentrancyGuardReentrantCall()": [
        {
          "details": "Unauthorized reentrant call."
        }
      ]
    },
    "kind": "dev",
    "methods": {
      "performUpkeep(bytes)": {
        "details": "The input to this method should not be trusted, and the caller of the method should not even be restricted to any single registry. Anyone should be able call it, and the input should be validated, there is no guarantee that the data passed in is the performData returned from checkUpkeep. This could happen due to malicious keepers, racing keepers, or simply a state change while the performUpkeep transaction is waiting for confirmation. Always validate the data passed in.",
        "params": {
          "performData": "is the data which was passed back from the checkData simulation. If it is encoded, it can easily be decoded into other types by calling `abi.decode`. This data should not be trusted, and should be validated against the contract's current state."
        }
      }
    },
    "version": 1
  },
  "userdoc": {
    "kind": "user",
    "methods": {
      "acceptOwnership()": {
        "notice": "Allows an ownership transfer to be completed by the recipient."
      },
      "owner()": {
        "notice": "Get the current owner"
      },
      "performUpkeep(bytes)": {
        "notice": "method that is actually executed by the keepers, via the registry. The data returned by the checkUpkeep simulation will be passed into this method to actually be executed."
      },
      "setCoordinator(address)": {
        "notice": "Sets the VRF Coordinator addressThis method should only be callable by the coordinator or contract owner"
      },
      "transferOwnership(address)": {
        "notice": "Allows an owner to begin transferring ownership to a new address."
      }
    },
    "version": 1
  },
  "storageLayout": {
    "storage": [
      {
        "astId": 97,
        "contract": "contracts/OmegaLottery.sol:OmegaLottery",
        "label": "s_owner",
        "offset": 0,
        "slot": "0",
        "type": "t_address"
      },
      {
        "astId": 99,
        "contract": "contracts/OmegaLottery.sol:OmegaLottery",
        "label": "s_pendingOwner",
        "offset": 0,
        "slot": "1",
        "type": "t_address"
      },
      {
        "astId": 299,
        "contract": "contracts/OmegaLottery.sol:OmegaLottery",
        "label": "s_vrfCoordinator",
        "offset": 0,
        "slot": "2",
        "type": "t_contract(IVRFCoordinatorV2Plus)448"
      },
      {
        "astId": 656,
        "contract": "contracts/OmegaLottery.sol:OmegaLottery",
        "label": "_status",
        "offset": 0,
        "slot": "3",
        "type": "t_uint256"
      },
      {
        "astId": 5668,
        "contract": "contracts/OmegaLottery.sol:OmegaLottery",
        "label": "_treasuryAddress",
        "offset": 0,
        "slot": "4",
        "type": "t_address"
      },
      {
        "astId": 5670,
        "contract": "contracts/OmegaLottery.sol:OmegaLottery",
        "label": "_winnerCut",
        "offset": 0,
        "slot": "5",
        "type": "t_uint256"
      },
      {
        "astId": 5801,
        "contract": "contracts/OmegaLottery.sol:OmegaLottery",
        "label": "lotteryIdCounter",
        "offset": 0,
        "slot": "6",
        "type": "t_uint256"
      },
      {
        "astId": 5806,
        "contract": "contracts/OmegaLottery.sol:OmegaLottery",
        "label": "lotteries",
        "offset": 0,
        "slot": "7",
        "type": "t_mapping(t_uint256,t_struct(Lottery)5799_storage)"
      },
      {
        "astId": 5811,
        "contract": "contracts/OmegaLottery.sol:OmegaLottery",
        "label": "lotteryPlayers",
        "offset": 0,
        "slot": "8",
        "type": "t_mapping(t_uint256,t_array(t_address)dyn_storage)"
      },
      {
        "astId": 5817,
        "contract": "contracts/OmegaLottery.sol:OmegaLottery",
        "label": "activePlayerStakes",
        "offset": 0,
        "slot": "9",
        "type": "t_mapping(t_uint256,t_mapping(t_address,t_uint256))"
      },
      {
        "astId": 5819,
        "contract": "contracts/OmegaLottery.sol:OmegaLottery",
        "label": "s_subscriptionId",
        "offset": 0,
        "slot": "10",
        "type": "t_uint256"
      },
      {
        "astId": 5821,
        "contract": "contracts/OmegaLottery.sol:OmegaLottery",
        "label": "_keyHash",
        "offset": 0,
        "slot": "11",
        "type": "t_bytes32"
      },
      {
        "astId": 5823,
        "contract": "contracts/OmegaLottery.sol:OmegaLottery",
        "label": "callbackGasLimit",
        "offset": 0,
        "slot": "12",
        "type": "t_uint32"
      },
      {
        "astId": 5825,
        "contract": "contracts/OmegaLottery.sol:OmegaLottery",
        "label": "requestConfirmations",
        "offset": 4,
        "slot": "12",
        "type": "t_uint16"
      },
      {
        "astId": 5827,
        "contract": "contracts/OmegaLottery.sol:OmegaLottery",
        "label": "numWords",
        "offset": 6,
        "slot": "12",
        "type": "t_uint32"
      },
      {
        "astId": 5830,
        "contract": "contracts/OmegaLottery.sol:OmegaLottery",
        "label": "allowableVrfDelay",
        "offset": 0,
        "slot": "13",
        "type": "t_uint256"
      },
      {
        "astId": 5834,
        "contract": "contracts/OmegaLottery.sol:OmegaLottery",
        "label": "requestToLottery",
        "offset": 0,
        "slot": "14",
        "type": "t_mapping(t_uint256,t_uint256)"
      },
      {
        "astId": 5836,
        "contract": "contracts/OmegaLottery.sol:OmegaLottery",
        "label": "lastRequestId",
        "offset": 0,
        "slot": "15",
        "type": "t_uint256"
      }
    ],
    "types": {
      "t_address": {
        "encoding": "inplace",
        "label": "address",
        "numberOfBytes": "20"
      },
      "t_array(t_address)dyn_storage": {
        "base": "t_address",
        "encoding": "dynamic_array",
        "label": "address[]",
        "numberOfBytes": "32"
      },
      "t_bytes32": {
        "encoding": "inplace",
        "label": "bytes32",
        "numberOfBytes": "32"
      },
      "t_contract(IVRFCoordinatorV2Plus)448": {
        "encoding": "inplace",
        "label": "contract IVRFCoordinatorV2Plus",
        "numberOfBytes": "20"
      },
      "t_enum(LotteryStatus)5777": {
        "encoding": "inplace",
        "label": "enum OmegaLottery.LotteryStatus",
        "numberOfBytes": "1"
      },
      "t_mapping(t_address,t_uint256)": {
        "encoding": "mapping",
        "key": "t_address",
        "label": "mapping(address => uint256)",
        "numberOfBytes": "32",
        "value": "t_uint256"
      },
      "t_mapping(t_uint256,t_array(t_address)dyn_storage)": {
        "encoding": "mapping",
        "key": "t_uint256",
        "label": "mapping(uint256 => address[])",
        "numberOfBytes": "32",
        "value": "t_array(t_address)dyn_storage"
      },
      "t_mapping(t_uint256,t_mapping(t_address,t_uint256))": {
        "encoding": "mapping",
        "key": "t_uint256",
        "label": "mapping(uint256 => mapping(address => uint256))",
        "numberOfBytes": "32",
        "value": "t_mapping(t_address,t_uint256)"
      },
      "t_mapping(t_uint256,t_struct(Lottery)5799_storage)": {
        "encoding": "mapping",
        "key": "t_uint256",
        "label": "mapping(uint256 => struct OmegaLottery.Lottery)",
        "numberOfBytes": "32",
        "value": "t_struct(Lottery)5799_storage"
      },
      "t_mapping(t_uint256,t_uint256)": {
        "encoding": "mapping",
        "key": "t_uint256",
        "label": "mapping(uint256 => uint256)",
        "numberOfBytes": "32",
        "value": "t_uint256"
      },
      "t_struct(Lottery)5799_storage": {
        "encoding": "inplace",
        "label": "struct OmegaLottery.Lottery",
        "members": [
          {
            "astId": 5779,
            "contract": "contracts/OmegaLottery.sol:OmegaLottery",
            "label": "id",
            "offset": 0,
            "slot": "0",
            "type": "t_uint256"
          },
          {
            "astId": 5781,
            "contract": "contracts/OmegaLottery.sol:OmegaLottery",
            "label": "entryFee",
            "offset": 0,
            "slot": "1",
            "type": "t_uint256"
          },
          {
            "astId": 5783,
            "contract": "contracts/OmegaLottery.sol:OmegaLottery",
            "label": "startTime",
            "offset": 0,
            "slot": "2",
            "type": "t_uint256"
          },
          {
            "astId": 5785,
            "contract": "contracts/OmegaLottery.sol:OmegaLottery",
            "label": "endTime",
            "offset": 0,
            "slot": "3",
            "type": "t_uint256"
          },
          {
            "astId": 5787,
            "contract": "contracts/OmegaLottery.sol:OmegaLottery",
            "label": "totalPot",
            "offset": 0,
            "slot": "4",
            "type": "t_uint256"
          },
          {
            "astId": 5790,
            "contract": "contracts/OmegaLottery.sol:OmegaLottery",
            "label": "status",
            "offset": 0,
            "slot": "5",
            "type": "t_enum(LotteryStatus)5777"
          },
          {
            "astId": 5792,
            "contract": "contracts/OmegaLottery.sol:OmegaLottery",
            "label": "winner",
            "offset": 1,
            "slot": "5",
            "type": "t_address"
          },
          {
            "astId": 5794,
            "contract": "contracts/OmegaLottery.sol:OmegaLottery",
            "label": "randomValue",
            "offset": 0,
            "slot": "6",
            "type": "t_uint256"
          },
          {
            "astId": 5796,
            "contract": "contracts/OmegaLottery.sol:OmegaLottery",
            "label": "requestId",
            "offset": 0,
            "slot": "7",
            "type": "t_uint256"
          },
          {
            "astId": 5798,
            "contract": "contracts/OmegaLottery.sol:OmegaLottery",
            "label": "vrfRequestTime",
            "offset": 0,
            "slot": "8",
            "type": "t_uint256"
          }
        ],
        "numberOfBytes": "288"
      },
      "t_uint16": {
        "encoding": "inplace",
        "label": "uint16",
        "numberOfBytes": "2"
      },
      "t_uint256": {
        "encoding": "inplace",
        "label": "uint256",
        "numberOfBytes": "32"
      },
      "t_uint32": {
        "encoding": "inplace",
        "label": "uint32",
        "numberOfBytes": "4"
      }
    }
  }
}