{
  "address": "0xCa312D97a4fF6F4C95f154a6ED97aFF59eE3C098",
  "abi": [
    {
      "inputs": [
        {
          "internalType": "address",
          "name": "treasuryAddress",
          "type": "address"
        },
        {
          "internalType": "uint256",
          "name": "subscriptionId",
          "type": "uint256"
        },
        {
          "internalType": "address",
          "name": "vrfCoordinator",
          "type": "address"
        },
        {
          "internalType": "bytes32",
          "name": "keyHash",
          "type": "bytes32"
        },
        {
          "internalType": "uint256",
          "name": "defaultEntryFee",
          "type": "uint256"
        },
        {
          "internalType": "uint256",
          "name": "lotteryDuration",
          "type": "uint256"
        },
        {
          "internalType": "uint256",
          "name": "winnerCut",
          "type": "uint256"
        }
      ],
      "stateMutability": "nonpayable",
      "type": "constructor"
    },
    {
      "inputs": [],
      "name": "InsufficientFunds",
      "type": "error"
    },
    {
      "inputs": [],
      "name": "InvalidEntryTime",
      "type": "error"
    },
    {
      "inputs": [],
      "name": "InvalidTreasuryAddress",
      "type": "error"
    },
    {
      "inputs": [],
      "name": "LotteryDNE",
      "type": "error"
    },
    {
      "inputs": [],
      "name": "LotteryEnded",
      "type": "error"
    },
    {
      "inputs": [],
      "name": "LotteryNotEnded",
      "type": "error"
    },
    {
      "inputs": [],
      "name": "LotteryNotOpen",
      "type": "error"
    },
    {
      "inputs": [],
      "name": "LotteryNotStarted",
      "type": "error"
    },
    {
      "inputs": [],
      "name": "NotEnoughPlayers",
      "type": "error"
    },
    {
      "inputs": [
        {
          "internalType": "address",
          "name": "have",
          "type": "address"
        },
        {
          "internalType": "address",
          "name": "want",
          "type": "address"
        }
      ],
      "name": "OnlyCoordinatorCanFulfill",
      "type": "error"
    },
    {
      "inputs": [
        {
          "internalType": "address",
          "name": "have",
          "type": "address"
        },
        {
          "internalType": "address",
          "name": "owner",
          "type": "address"
        },
        {
          "internalType": "address",
          "name": "coordinator",
          "type": "address"
        }
      ],
      "name": "OnlyOwnerOrCoordinator",
      "type": "error"
    },
    {
      "inputs": [],
      "name": "ReentrancyGuardReentrantCall",
      "type": "error"
    },
    {
      "inputs": [],
      "name": "RequestNotTimedOut",
      "type": "error"
    },
    {
      "inputs": [],
      "name": "ZeroAddress",
      "type": "error"
    },
    {
      "anonymous": false,
      "inputs": [
        {
          "indexed": false,
          "internalType": "address",
          "name": "vrfCoordinator",
          "type": "address"
        }
      ],
      "name": "CoordinatorSet",
      "type": "event"
    },
    {
      "anonymous": false,
      "inputs": [
        {
          "indexed": true,
          "internalType": "uint256",
          "name": "lotteryId",
          "type": "uint256"
        },
        {
          "indexed": false,
          "internalType": "uint256",
          "name": "entryFee",
          "type": "uint256"
        },
        {
          "indexed": false,
          "internalType": "uint256",
          "name": "startTime",
          "type": "uint256"
        },
        {
          "indexed": false,
          "internalType": "uint256",
          "name": "endTime",
          "type": "uint256"
        }
      ],
      "name": "LotteryCreated",
      "type": "event"
    },
    {
      "anonymous": false,
      "inputs": [
        {
          "indexed": true,
          "internalType": "uint256",
          "name": "lotteryId",
          "type": "uint256"
        },
        {
          "indexed": true,
          "internalType": "address",
          "name": "user",
          "type": "address"
        },
        {
          "indexed": false,
          "internalType": "uint256",
          "name": "amount",
          "type": "uint256"
        }
      ],
      "name": "LotteryEntered",
      "type": "event"
    },
    {
      "anonymous": false,
      "inputs": [
        {
          "indexed": true,
          "internalType": "uint256",
          "name": "lotteryId",
          "type": "uint256"
        },
        {
          "indexed": false,
          "internalType": "uint256",
          "name": "requestId",
          "type": "uint256"
        }
      ],
      "name": "LotteryRefunded",
      "type": "event"
    },
    {
      "anonymous": false,
      "inputs": [
        {
          "indexed": true,
          "internalType": "uint256",
          "name": "lotteryId",
          "type": "uint256"
        },
        {
          "indexed": false,
          "internalType": "enum OmegaLottery.LotteryStatus",
          "name": "lotteryStatus",
          "type": "uint8"
        },
        {
          "indexed": false,
          "internalType": "uint256",
          "name": "timestamp",
          "type": "uint256"
        }
      ],
      "name": "LotteryStatusUpdated",
      "type": "event"
    },
    {
      "anonymous": false,
      "inputs": [
        {
          "indexed": true,
          "internalType": "address",
          "name": "from",
          "type": "address"
        },
        {
          "indexed": true,
          "internalType": "address",
          "name": "to",
          "type": "address"
        }
      ],
      "name": "OwnershipTransferRequested",
      "type": "event"
    },
    {
      "anonymous": false,
      "inputs": [
        {
          "indexed": true,
          "internalType": "address",
          "name": "from",
          "type": "address"
        },
        {
          "indexed": true,
          "internalType": "address",
          "name": "to",
          "type": "address"
        }
      ],
      "name": "OwnershipTransferred",
      "type": "event"
    },
    {
      "anonymous": false,
      "inputs": [
        {
          "indexed": true,
          "internalType": "uint256",
          "name": "lotteryId",
          "type": "uint256"
        },
        {
          "indexed": false,
          "internalType": "uint256",
          "name": "requestId",
          "type": "uint256"
        }
      ],
      "name": "RandomnessRequested",
      "type": "event"
    },
    {
      "anonymous": false,
      "inputs": [
        {
          "indexed": true,
          "internalType": "uint256",
          "name": "lotteryId",
          "type": "uint256"
        },
        {
          "indexed": true,
          "internalType": "address",
          "name": "user",
          "type": "address"
        },
        {
          "indexed": false,
          "internalType": "uint256",
          "name": "amount",
          "type": "uint256"
        }
      ],
      "name": "RefundFailed",
      "type": "event"
    },
    {
      "anonymous": false,
      "inputs": [
        {
          "indexed": true,
          "internalType": "uint256",
          "name": "lotteryId",
          "type": "uint256"
        },
        {
          "indexed": true,
          "internalType": "address",
          "name": "user",
          "type": "address"
        },
        {
          "indexed": false,
          "internalType": "uint256",
          "name": "amount",
          "type": "uint256"
        }
      ],
      "name": "RefundIssued",
      "type": "event"
    },
    {
      "anonymous": false,
      "inputs": [
        {
          "indexed": false,
          "internalType": "uint256",
          "name": "oldAmount",
          "type": "uint256"
        },
        {
          "indexed": false,
          "internalType": "uint256",
          "name": "newAmount",
          "type": "uint256"
        }
      ],
      "name": "WinnerCutUpdated",
      "type": "event"
    },
    {
      "anonymous": false,
      "inputs": [
        {
          "indexed": true,
          "internalType": "uint256",
          "name": "lotteryId",
          "type": "uint256"
        },
        {
          "indexed": true,
          "internalType": "address",
          "name": "user",
          "type": "address"
        },
        {
          "indexed": false,
          "internalType": "uint256",
          "name": "payout",
          "type": "uint256"
        },
        {
          "indexed": false,
          "internalType": "uint256",
          "name": "fee",
          "type": "uint256"
        },
        {
          "indexed": false,
          "internalType": "uint256",
          "name": "totalPot",
          "type": "uint256"
        }
      ],
      "name": "WinnerPaid",
      "type": "event"
    },
    {
      "anonymous": false,
      "inputs": [
        {
          "indexed": true,
          "internalType": "uint256",
          "name": "lotteryId",
          "type": "uint256"
        },
        {
          "indexed": true,
          "internalType": "address",
          "name": "user",
          "type": "address"
        }
      ],
      "name": "WinnerSelected",
      "type": "event"
    },
    {
      "inputs": [],
      "name": "_defaultEntryFee",
      "outputs": [
        {
          "internalType": "uint256",
          "name": "",
          "type": "uint256"
        }
      ],
      "stateMutability": "view",
      "type": "function"
    },
    {
      "inputs": [],
      "name": "_keyHash",
      "outputs": [
        {
          "internalType": "bytes32",
          "name": "",
          "type": "bytes32"
        }
      ],
      "stateMutability": "view",
      "type": "function"
    },
    {
      "inputs": [],
      "name": "_lotteryDuration",
      "outputs": [
        {
          "internalType": "uint256",
          "name": "",
          "type": "uint256"
        }
      ],
      "stateMutability": "view",
      "type": "function"
    },
    {
      "inputs": [],
      "name": "acceptOwnership",
      "outputs": [],
      "stateMutability": "nonpayable",
      "type": "function"
    },
    {
      "inputs": [],
      "name": "callbackGasLimit",
      "outputs": [
        {
          "internalType": "uint32",
          "name": "",
          "type": "uint32"
        }
      ],
      "stateMutability": "view",
      "type": "function"
    },
    {
      "inputs": [
        {
          "internalType": "bytes",
          "name": "",
          "type": "bytes"
        }
      ],
      "name": "checkUpkeep",
      "outputs": [
        {
          "internalType": "bool",
          "name": "upkeepNeeded",
          "type": "bool"
        },
        {
          "internalType": "bytes",
          "name": "performData",
          "type": "bytes"
        }
      ],
      "stateMutability": "view",
      "type": "function"
    },
    {
      "inputs": [
        {
          "internalType": "uint256",
          "name": "lotteryId",
          "type": "uint256"
        }
      ],
      "name": "getLottery",
      "outputs": [
        {
          "components": [
            {
              "internalType": "uint256",
              "name": "id",
              "type": "uint256"
            },
            {
              "internalType": "uint256",
              "name": "entryFee",
              "type": "uint256"
            },
            {
              "internalType": "uint256",
              "name": "startTime",
              "type": "uint256"
            },
            {
              "internalType": "uint256",
              "name": "endTime",
              "type": "uint256"
            },
            {
              "internalType": "uint256",
              "name": "totalPot",
              "type": "uint256"
            },
            {
              "internalType": "enum OmegaLottery.LotteryStatus",
              "name": "status",
              "type": "uint8"
            },
            {
              "internalType": "address",
              "name": "winner",
              "type": "address"
            },
            {
              "internalType": "uint256",
              "name": "randomValue",
              "type": "uint256"
            },
            {
              "internalType": "uint256",
              "name": "requestId",
              "type": "uint256"
            },
            {
              "internalType": "uint256",
              "name": "vrfRequestTime",
              "type": "uint256"
            }
          ],
          "internalType": "struct OmegaLottery.Lottery",
          "name": "lottery",
          "type": "tuple"
        }
      ],
      "stateMutability": "view",
      "type": "function"
    },
    {
      "inputs": [
        {
          "internalType": "uint256",
          "name": "lotteryId",
          "type": "uint256"
        }
      ],
      "name": "getLotteryStatusById",
      "outputs": [
        {
          "internalType": "enum OmegaLottery.LotteryStatus",
          "name": "status",
          "type": "uint8"
        }
      ],
      "stateMutability": "view",
      "type": "function"
    },
    {
      "inputs": [
        {
          "internalType": "uint256",
          "name": "lotteryId",
          "type": "uint256"
        },
        {
          "internalType": "uint256",
          "name": "index",
          "type": "uint256"
        }
      ],
      "name": "getPlayerAt",
      "outputs": [
        {
          "internalType": "address",
          "name": "",
          "type": "address"
        }
      ],
      "stateMutability": "view",
      "type": "function"
    },
    {
      "inputs": [
        {
          "internalType": "uint256",
          "name": "lotteryId",
          "type": "uint256"
        }
      ],
      "name": "getPlayerCount",
      "outputs": [
        {
          "internalType": "uint256",
          "name": "",
          "type": "uint256"
        }
      ],
      "stateMutability": "view",
      "type": "function"
    },
    {
      "inputs": [
        {
          "internalType": "uint256",
          "name": "lotteryId",
          "type": "uint256"
        },
        {
          "internalType": "address",
          "name": "user",
          "type": "address"
        }
      ],
      "name": "getPlayerTickets",
      "outputs": [
        {
          "internalType": "uint256",
          "name": "",
          "type": "uint256"
        }
      ],
      "stateMutability": "view",
      "type": "function"
    },
    {
      "inputs": [
        {
          "internalType": "uint256",
          "name": "lotteryId",
          "type": "uint256"
        }
      ],
      "name": "getPlayersByLotteryId",
      "outputs": [
        {
          "internalType": "address[]",
          "name": "players",
          "type": "address[]"
        }
      ],
      "stateMutability": "view",
      "type": "function"
    },
    {
      "inputs": [
        {
          "internalType": "uint256",
          "name": "lotteryId",
          "type": "uint256"
        }
      ],
      "name": "getRandomnessDetails",
      "outputs": [
        {
          "internalType": "uint256",
          "name": "requestId",
          "type": "uint256"
        },
        {
          "internalType": "uint256",
          "name": "randomValue",
          "type": "uint256"
        },
        {
          "internalType": "bytes32",
          "name": "vrfKeyHash",
          "type": "bytes32"
        },
        {
          "internalType": "uint256",
          "name": "subscriptionId",
          "type": "uint256"
        }
      ],
      "stateMutability": "view",
      "type": "function"
    },
    {
      "inputs": [
        {
          "internalType": "uint256",
          "name": "lotteryId",
          "type": "uint256"
        },
        {
          "internalType": "address",
          "name": "user",
          "type": "address"
        }
      ],
      "name": "getStakeByUserAddress",
      "outputs": [
        {
          "internalType": "uint256",
          "name": "",
          "type": "uint256"
        }
      ],
      "stateMutability": "view",
      "type": "function"
    },
    {
      "inputs": [
        {
          "internalType": "uint256",
          "name": "lotteryId",
          "type": "uint256"
        }
      ],
      "name": "getTotalTickets",
      "outputs": [
        {
          "internalType": "uint256",
          "name": "",
          "type": "uint256"
        }
      ],
      "stateMutability": "view",
      "type": "function"
    },
    {
      "inputs": [],
      "name": "getTreasuryAddress",
      "outputs": [
        {
          "internalType": "address",
          "name": "",
          "type": "address"
        }
      ],
      "stateMutability": "view",
      "type": "function"
    },
    {
      "inputs": [],
      "name": "getWinnerCut",
      "outputs": [
        {
          "internalType": "uint256",
          "name": "",
          "type": "uint256"
        }
      ],
      "stateMutability": "view",
      "type": "function"
    },
    {
      "inputs": [
        {
          "internalType": "uint256",
          "name": "lotteryId",
          "type": "uint256"
        }
      ],
      "name": "getWinningTicket",
      "outputs": [
        {
          "internalType": "uint256",
          "name": "",
          "type": "uint256"
        }
      ],
      "stateMutability": "view",
      "type": "function"
    },
    {
      "inputs": [
        {
          "internalType": "uint256",
          "name": "lotteryId",
          "type": "uint256"
        }
      ],
      "name": "joinLottery",
      "outputs": [],
      "stateMutability": "payable",
      "type": "function"
    },
    {
      "inputs": [],
      "name": "lastRequestId",
      "outputs": [
        {
          "internalType": "uint256",
          "name": "",
          "type": "uint256"
        }
      ],
      "stateMutability": "view",
      "type": "function"
    },
    {
      "inputs": [],
      "name": "lotteryIdCounter",
      "outputs": [
        {
          "internalType": "uint256",
          "name": "",
          "type": "uint256"
        }
      ],
      "stateMutability": "view",
      "type": "function"
    },
    {
      "inputs": [],
      "name": "numWords",
      "outputs": [
        {
          "internalType": "uint32",
          "name": "",
          "type": "uint32"
        }
      ],
      "stateMutability": "view",
      "type": "function"
    },
    {
      "inputs": [],
      "name": "owner",
      "outputs": [
        {
          "internalType": "address",
          "name": "",
          "type": "address"
        }
      ],
      "stateMutability": "view",
      "type": "function"
    },
    {
      "inputs": [
        {
          "internalType": "bytes",
          "name": "performData",
          "type": "bytes"
        }
      ],
      "name": "performUpkeep",
      "outputs": [],
      "stateMutability": "nonpayable",
      "type": "function"
    },
    {
      "inputs": [
        {
          "internalType": "uint256",
          "name": "requestId",
          "type": "uint256"
        },
        {
          "internalType": "uint256[]",
          "name": "randomWords",
          "type": "uint256[]"
        }
      ],
      "name": "rawFulfillRandomWords",
      "outputs": [],
      "stateMutability": "nonpayable",
      "type": "function"
    },
    {
      "inputs": [
        {
          "internalType": "uint256",
          "name": "lotteryId",
          "type": "uint256"
        }
      ],
      "name": "recomputeWinner",
      "outputs": [
        {
          "internalType": "address",
          "name": "winnerAddress",
          "type": "address"
        }
      ],
      "stateMutability": "view",
      "type": "function"
    },
    {
      "inputs": [],
      "name": "requestConfirmations",
      "outputs": [
        {
          "internalType": "uint16",
          "name": "",
          "type": "uint16"
        }
      ],
      "stateMutability": "view",
      "type": "function"
    },
    {
      "inputs": [
        {
          "internalType": "uint256",
          "name": "",
          "type": "uint256"
        }
      ],
      "name": "requestToLottery",
      "outputs": [
        {
          "internalType": "uint256",
          "name": "",
          "type": "uint256"
        }
      ],
      "stateMutability": "view",
      "type": "function"
    },
    {
      "inputs": [],
      "name": "s_subscriptionId",
      "outputs": [
        {
          "internalType": "uint256",
          "name": "",
          "type": "uint256"
        }
      ],
      "stateMutability": "view",
      "type": "function"
    },
    {
      "inputs": [],
      "name": "s_vrfCoordinator",
      "outputs": [
        {
          "internalType": "contract IVRFCoordinatorV2Plus",
          "name": "",
          "type": "address"
        }
      ],
      "stateMutability": "view",
      "type": "function"
    },
    {
      "inputs": [
        {
          "internalType": "address",
          "name": "_vrfCoordinator",
          "type": "address"
        }
      ],
      "name": "setCoordinator",
      "outputs": [],
      "stateMutability": "nonpayable",
      "type": "function"
    },
    {
      "inputs": [
        {
          "internalType": "uint256",
          "name": "winnerCut",
          "type": "uint256"
        }
      ],
      "name": "setWinnerCut",
      "outputs": [],
      "stateMutability": "nonpayable",
      "type": "function"
    },
    {
      "inputs": [
        {
          "internalType": "address",
          "name": "to",
          "type": "address"
        }
      ],
      "name": "transferOwnership",
      "outputs": [],
      "stateMutability": "nonpayable",
      "type": "function"
    }
  ],
  "transactionHash": "0xa0c2a562026ee0333fd253599cd39a802fe3f93161efb7d77cd395f1717b780c",
  "args": [
    "0xAE543C89DE0166f17Ca1baD0f08da5Dda141730D",
    "61929715567171764477812404321678706382866709361907132046623015877255427485329",
    "0x9DdfaCa8183c41ad55329BdeeD9F6A8d53168B1B",
    "0x787d74caea10b2b357790d5b5247c2f63d1d91572a9846f780606e4d953677ae",
    "10000000000000000",
    3600,
    90
  ],
  "numDeployments": 1,
  "solcInputHash": "fe5d732eb9fa76f78ea493cac75015f1",
  "bytecode": "0x60c0604052610258600f55348015610015575f5ffd5b5060405161267138038061267183398101604081905261003491610312565b8433805f8161008a5760405162461bcd60e51b815260206004820152601860248201527f43616e6e6f7420736574206f776e657220746f207a65726f000000000000000060448201526064015b60405180910390fd5b5f80546001600160a01b0319166001600160a01b03848116919091179091558116156100b9576100b981610162565b5050506001600160a01b0381166100e35760405163d92e233d60e01b815260040160405180910390fd5b600280546001600160a01b03199081166001600160a01b03938416179091556001600381905560048054909216928a16929092179055600c879055600d859055600655600e80546001600160501b03191666010003000f424017905560a08390526080829052600581905561015661020a565b505050505050506103e2565b336001600160a01b038216036101ba5760405162461bcd60e51b815260206004820152601760248201527f43616e6e6f74207472616e7366657220746f2073656c660000000000000000006044820152606401610081565b600180546001600160a01b0319166001600160a01b038381169182179092555f8054604051929316917fed8889f560326eb138920d842192f0eb3dd22b4f139c87a2c57538e05bae12789190a350565b600680545f918261021a83610387565b9091555060805190915042905f90610232908361039f565b5f8481526007602090815260409182902086815560a05160018201819055600282018790556003820185905560058201805460ff1916905583519081529182018690529181018390529192509084907f68b3cc7239912b7f66b9e2f9d93955382d1082297c9e6347beb37217f081650e9060600160405180910390a2600581015460405185917fb1cccbd310e718666203ac552a77cec64816a2c3bbb51dacc8d2f71b5e3c628e916102e99160ff169042906103b8565b60405180910390a250505050565b80516001600160a01b038116811461030d575f5ffd5b919050565b5f5f5f5f5f5f5f60e0888a031215610328575f5ffd5b610331886102f7565b60208901519097509550610347604089016102f7565b606089015160808a015160a08b015160c0909b0151999c989b5091999098919790965090945092505050565b634e487b7160e01b5f52601160045260245ffd5b5f6001820161039857610398610373565b5060010190565b808201808211156103b2576103b2610373565b92915050565b60408101600384106103d857634e487b7160e01b5f52602160045260245ffd5b9281526020015290565b60805160a0516122606104115f395f8181610571015261167601525f81816105a4015261163b01526122605ff3fe6080604052600436106101e6575f3560e01c80638da5cb5b11610108578063b3dff9c31161009d578063e00246041161006d578063e002460414610618578063f2fde38b14610635578063f6172c6114610654578063fa2422d614610693578063fc2a88c3146106b2575f5ffd5b8063b3dff9c314610560578063c02d31a014610593578063c7ce6714146105c6578063d29339f6146105da575f5ffd5b80639eccacf6116100d85780639eccacf6146104a0578063ab1205e9146104bf578063ac7a70fb146104ea578063b0fb162f1461052b575f5ffd5b80638da5cb5b146104065780638ea981171461043657806392e845f614610455578063937e529314610481575f5ffd5b80636e04ff0d1161017e57806380a6cc511161014e57806380a6cc511461038757806381383636146103b35780638ac00021146103d25780638d2cdc34146103e7575f5ffd5b80636e04ff0d1461030d57806379ba50971461033a5780637ccfd7fc1461034e5780637eee9fc114610374575f5ffd5b806324f74697116101b957806324f746971461028957806325595ce5146102ba5780634585e33b146102cf5780635f2ff1cf146102ee575f5ffd5b806314da2b2e146101ea57806315c6e12314610212578063189062871461023d5780631fe543e314610268575b5f5ffd5b3480156101f5575f5ffd5b506101ff600d5481565b6040519081526020015b60405180910390f35b34801561021d575f5ffd5b506101ff61022c366004611de2565b60106020525f908152604090205481565b348015610248575f5ffd5b506101ff610257366004611de2565b5f908152600b602052604090205490565b348015610273575f5ffd5b50610287610282366004611df9565b6106c7565b005b348015610294575f5ffd5b50600e546102a59063ffffffff1681565b60405163ffffffff9091168152602001610209565b3480156102c5575f5ffd5b506101ff60065481565b3480156102da575f5ffd5b506102876102e9366004611e73565b61071c565b3480156102f9575f5ffd5b506101ff610308366004611de2565b6108b5565b348015610318575f5ffd5b5061032c610327366004611e73565b610905565b604051610209929190611f0f565b348015610345575f5ffd5b50610287610a8f565b348015610359575f5ffd5b50600e546102a5906601000000000000900463ffffffff1681565b610287610382366004611de2565b610b38565b348015610392575f5ffd5b506103a66103a1366004611de2565b610d6b565b6040516102099190611f29565b3480156103be575f5ffd5b506102876103cd366004611de2565b610dd4565b3480156103dd575f5ffd5b506101ff600c5481565b3480156103f2575f5ffd5b506101ff610401366004611f8f565b610e67565b348015610411575f5ffd5b505f546001600160a01b03165b6040516001600160a01b039091168152602001610209565b348015610441575f5ffd5b50610287610450366004611fb9565b610e90565b348015610460575f5ffd5b5061047461046f366004611de2565b610f80565b604051610209919061200d565b34801561048c575f5ffd5b5061041e61049b366004611de2565b61104a565b3480156104ab575f5ffd5b5060025461041e906001600160a01b031681565b3480156104ca575f5ffd5b506101ff6104d9366004611de2565b5f9081526008602052604090205490565b3480156104f5575f5ffd5b506101ff610504366004611f8f565b5f9182526009602090815260408084206001600160a01b0393909316845291905290205490565b348015610536575f5ffd5b50600e5461054d90640100000000900461ffff1681565b60405161ffff9091168152602001610209565b34801561056b575f5ffd5b506101ff7f000000000000000000000000000000000000000000000000000000000000000081565b34801561059e575f5ffd5b506101ff7f000000000000000000000000000000000000000000000000000000000000000081565b3480156105d1575f5ffd5b506005546101ff565b3480156105e5575f5ffd5b5061060b6105f4366004611de2565b5f9081526007602052604090206005015460ff1690565b6040516102099190612097565b348015610623575f5ffd5b506004546001600160a01b031661041e565b348015610640575f5ffd5b5061028761064f366004611fb9565b611136565b34801561065f575f5ffd5b5061067361066e366004611de2565b61114a565b604080519485526020850193909352918301526060820152608001610209565b34801561069e575f5ffd5b5061041e6106ad3660046120a5565b61122c565b3480156106bd575f5ffd5b506101ff60115481565b6002546001600160a01b0316331461070c5760025460405163073e64fd60e21b81523360048201526001600160a01b0390911660248201526044015b60405180910390fd5b610717838383611266565b505050565b610724611328565b5f61073182840184611de2565b5f8181526007602052604090209091506001600582015460ff16600281111561075c5761075c611fd9565b036107c657600f54816008015461077391906120d9565b4210156107b65760405162461bcd60e51b8152602060048201526011602482015270155c1ad9595c081b9bdd081b9959591959607a1b6044820152606401610703565b6107bf82611352565b50506108a7565b60038101544210155f80600584015460ff1660028111156107e9576107e9611fd9565b1490508180156107f65750805b6108365760405162461bcd60e51b8152602060048201526011602482015270155c1ad9595c081b9bdd081b9959591959607a1b6044820152606401610703565b5f848152600b6020526040812054908190036108985760058401805460ff1916600290811790915560405186915f51602061220b5f395f51905f529161087e919042906120ec565b60405180910390a261088e61161e565b50505050506108a7565b6108a185611730565b50505050505b6108b16001600355565b5050565b5f818152600760209081526040808320600b9092528220548083036108ed5760405163f770074360e01b815260040160405180910390fd5b8082600601546108fd919061211b565b949350505050565b5f60605f6001600654610918919061212e565b9050805f0361093957505060408051602081019091525f8082529150610a88565b5f818152600760209081526040808320815161014081018352815481526001820154938101939093526002808201549284019290925260038101546060840152600481015460808401526005810154909160a084019160ff16908111156109a2576109a2611fd9565b60028111156109b3576109b3611fd9565b8152600582015461010090046001600160a01b03166020820152600682015460408201526007820154606082015260089091015460809091015290505f808260a001516002811115610a0757610a07611fd9565b148015610a18575081606001514210155b90505f60018360a001516002811115610a3357610a33611fd9565b148015610a525750600f54836101200151610a4e91906120d9565b4210155b90508180610a5d5750805b955083604051602001610a7291815260200190565b6040516020818303038152906040529450505050505b9250929050565b6001546001600160a01b03163314610ae25760405162461bcd60e51b815260206004820152601660248201527526bab9ba10313290383937b837b9b2b21037bbb732b960511b6044820152606401610703565b5f8054336001600160a01b0319808316821784556001805490911690556040516001600160a01b0390921692909183917f8be0079c531659141344cd1fd0a4f28419497f9722a3daafe3b4186f6b6457e091a350565b5f81815260076020526040812090829003610b665760405163c050234760e01b815260040160405180910390fd5b8060020154421015610b8b57604051632b6d3c4360e11b815260040160405180910390fd5b80600301544210610baf57604051639c89a6ed60e01b815260040160405180910390fd5b8060010154341015610bd45760405163356680b760e01b815260040160405180910390fd5b5f600582015460ff166002811115610bee57610bee611fd9565b14610c0c576040516315ea643d60e21b815260040160405180910390fd5b6001810154610c1b903461211b565b15610c395760405163356680b760e01b815260040160405180910390fd5b5f816001015434610c4a9190612141565b5f84815260096020908152604080832033845290915281205491925003610c99575f8381526008602090815260408220805460018101825590835291200180546001600160a01b031916331790555b5f838152600a6020908152604080832033845290915281208054839290610cc19084906120d9565b90915550505f838152600b602052604081208054839290610ce39084906120d9565b9250508190555034826004015f828254610cfd91906120d9565b90915550505f83815260096020908152604080832033845290915281208054349290610d2a9084906120d9565b9091555050604051348152339084907fd89b8985d462dcc0f343f72f43f1cfb87058fcbf847b83b81ca18ce204be941d9060200160405180910390a3505050565b5f81815260086020908152604091829020805483518184028101840190945280845260609392830182828015610dc857602002820191905f5260205f20905b81546001600160a01b03168152600190910190602001808311610daa575b50505050509050919050565b610ddc6118b6565b6064811115610e225760405162461bcd60e51b8152602060048201526012602482015271125b9d985b1a59081dda5b9b995c8818dd5d60721b6044820152606401610703565b600580549082905560408051828152602081018490527fe22dd7d029f09b2ad13a7dc92fed35db5f9b645f553f27b8a129e5f1cc149df7910160405180910390a15050565b5f828152600a602090815260408083206001600160a01b03851684529091529020545b92915050565b5f546001600160a01b03163314801590610eb557506002546001600160a01b03163314155b15610f055733610ecc5f546001600160a01b031690565b60025460405163061db9c160e01b81526001600160a01b0393841660048201529183166024830152919091166044820152606401610703565b6001600160a01b038116610f2c5760405163d92e233d60e01b815260040160405180910390fd5b600280546001600160a01b0319166001600160a01b0383169081179091556040519081527fd1a6a14209a385a964d036e404cb5cfb71f4000cdb03c9366292430787261be69060200160405180910390a150565b610f88611d7f565b60075f8381526020019081526020015f20604051806101400160405290815f820154815260200160018201548152602001600282015481526020016003820154815260200160048201548152602001600582015f9054906101000a900460ff166002811115610ff957610ff9611fd9565b600281111561100a5761100a611fd9565b8152600582015461010090046001600160a01b03166020820152600682015460408201526007820154606082015260089091015460809091015292915050565b5f818152600760209081526040808320600b9092528220548083036110825760405163f770074360e01b815260040160405180910390fd5b5f818360060154611093919061211b565b5f86815260086020526040812091925090815b815481101561111c575f8282815481106110c2576110c2612154565b5f9182526020808320909101548b8352600a825260408084206001600160a01b03909216808552919092529120549091506110fd90856120d9565b9350838510156111135798975050505050505050565b506001016110a6565b5060405163f770074360e01b815260040160405180910390fd5b61113e6118b6565b6111478161190a565b50565b5f5f5f5f5f60075f8781526020019081526020015f20604051806101400160405290815f820154815260200160018201548152602001600282015481526020016003820154815260200160048201548152602001600582015f9054906101000a900460ff1660028111156111c0576111c0611fd9565b60028111156111d1576111d1611fd9565b81526005820154610100908190046001600160a01b03166020830152600683015460408301526007830154606083015260089092015460809091015281015160e090910151600d54600c549299919850965090945092505050565b5f82815260086020526040812080548390811061124b5761124b612154565b5f918252602090912001546001600160a01b03169392505050565b5f8381526010602090815260408083205480845260079092529091206001600582015460ff16600281111561129d5761129d611fd9565b146112da5760405162461bcd60e51b815260206004820152600d60248201526c496e76616c696420737461746560981b6044820152606401610703565b5f84845f8181106112ed576112ed612154565b905060200201359050808260060181905550611308836119b2565b505f8681526010602052604081205561132083611adb565b505050505050565b60026003540361134b57604051633ee5aeb560e01b815260040160405180910390fd5b6002600355565b61135a611328565b5f8181526007602081905260408220908101549091600583015460ff16600281111561138857611388611fd9565b036113a6576040516301e2c20160e31b815260040160405180910390fd5b6002600583015460ff1660028111156113c1576113c1611fd9565b036113df57604051639c89a6ed60e01b815260040160405180910390fd5b600f5482600801546113f191906120d9565b42101561141157604051636c5b777b60e11b815260040160405180910390fd5b5f838152600860205260408120805490915b8181101561157b575f83828154811061143e5761143e612154565b5f9182526020808320909101548983526009825260408084206001600160a01b03909216808552919092529120549091508015611571575f8881526009602090815260408083206001600160a01b03861680855292528083208390555183908381818185875af1925050503d805f81146114d3576040519150601f19603f3d011682016040523d82523d5f602084013e6114d8565b606091505b505090508061152a57826001600160a01b0316897f6b047d8dc1f7b38d6f9a960ffc93bf185e2218056f75b0d410b2e64567f942a18460405161151d91815260200190565b60405180910390a361156f565b826001600160a01b0316897f7a482fdeb6bc9a1376f597068a214a7a39472bb2eff1b8cad21ba04f49ddca1b8460405161156691815260200190565b60405180910390a35b505b5050600101611423565b5060058401805460ff191660029081179091555f600486015560405186915f51602061220b5f395f51905f52916115b4919042906120ec565b60405180910390a25f83815260106020526040808220919091555185907f3a2e0fafa1963c117d897b59dbccc09a126a9b764e7758a4c9311a1a28121796906116009086815260200190565b60405180910390a261161061161e565b505050506111476001600355565b600680545f918261162e83612168565b909155509050425f6116607f0000000000000000000000000000000000000000000000000000000000000000836120d9565b5f848152600760209081526040918290208681557f000000000000000000000000000000000000000000000000000000000000000060018201819055600282018790556003820185905560058201805460ff1916905583519081529182018690529181018390529192509084907f68b3cc7239912b7f66b9e2f9d93955382d1082297c9e6347beb37217f081650e9060600160405180910390a2600581015460405185915f51602061220b5f395f51905f52916117229160ff169042906120ec565b60405180910390a250505050565b5f818152600760205260409081902060058101805460ff191660019081179091559151909183915f51602061220b5f395f51905f52916117719142906120ec565b60405180910390a26002546040805160c081018252600d548152600c54602080830191909152600e5461ffff6401000000008204168385015263ffffffff8082166060850152660100000000000090910416608083015282519081019092525f808352926001600160a01b031691639b1c385e919060a08201906117f490611d0e565b8152506040518263ffffffff1660e01b81526004016118139190612180565b6020604051808303815f875af115801561182f573d5f5f3e3d5ffd5b505050506040513d601f19601f8201168201806040525081019061185391906121dc565b9050827f3d94fecedaa4f90b8bd459797adb95f5bb11426025c5541390d9ccc1ad1b60a18260405161188791815260200190565b60405180910390a25f818152601060205260409020929092556011829055600781019190915542600890910155565b5f546001600160a01b031633146119085760405162461bcd60e51b815260206004820152601660248201527527b7363c9031b0b63630b1363290313c9037bbb732b960511b6044820152606401610703565b565b336001600160a01b038216036119625760405162461bcd60e51b815260206004820152601760248201527f43616e6e6f74207472616e7366657220746f2073656c660000000000000000006044820152606401610703565b600180546001600160a01b0319166001600160a01b038381169182179092555f8054604051929316917fed8889f560326eb138920d842192f0eb3dd22b4f139c87a2c57538e05bae12789190a350565b5f818152600760209081526040808320600b9092528220548083036119ea5760405163f770074360e01b815260040160405180910390fd5b5f8183600601546119fb919061211b565b5f86815260086020526040812091925090815b815481101561111c575f828281548110611a2a57611a2a612154565b5f9182526020808320909101548b8352600a825260408084206001600160a01b0390921680855291909252912054909150611a6590856120d9565b935083851015611ad257600587018054610100600160a81b0319166101006001600160a01b0384169081029190911790915560405191985088918a907f03fb57eb449654e24e1b240d3d06702cf79362a065d5c0323aee642d4702fa4b905f90a350505050505050919050565b50600101611a0e565b611ae3611328565b5f8181526007602052604081206005808201546004830154915492936101009091046001600160a01b031692606490611b1c90846121f3565b611b269190612141565b90505f611b33828461212e565b90505f846001600160a01b0316836040515f6040518083038185875af1925050503d805f8114611b7e576040519150601f19603f3d011682016040523d82523d5f602084013e611b83565b606091505b5050905080611bcd5760405162461bcd60e51b815260206004820152601660248201527515da5b9b995c881d1c985b9cd9995c8819985a5b195960521b6044820152606401610703565b6004546040515f916001600160a01b03169084908381818185875af1925050503d805f8114611c17576040519150601f19603f3d011682016040523d82523d5f602084013e611c1c565b606091505b5050905080611c6d5760405162461bcd60e51b815260206004820152601860248201527f5472656173757279207472616e73666572206661696c656400000000000000006044820152606401610703565b60408051858152602081018590529081018690526001600160a01b0387169089907ff30abe51ca5623e06f88b1b711114f2f33e8bdfc6f7909541aa3b17f26cd84ad9060600160405180910390a360058701805460ff1916600290811790915560405189915f51602061220b5f395f51905f5291611ced919042906120ec565b60405180910390a2611cfd61161e565b505050505050506111476001600355565b60607f92fd13387c7fe7befbc38d303d6468778fb9731bc4583f17d92989c6fcfdeaaa82604051602401611d4791511515815260200190565b60408051601f198184030181529190526020810180516001600160e01b03166001600160e01b03199093169290921790915292915050565b6040518061014001604052805f81526020015f81526020015f81526020015f81526020015f81526020015f6002811115611dbb57611dbb611fd9565b81526020015f6001600160a01b031681526020015f81526020015f81526020015f81525090565b5f60208284031215611df2575f5ffd5b5035919050565b5f5f5f60408486031215611e0b575f5ffd5b83359250602084013567ffffffffffffffff811115611e28575f5ffd5b8401601f81018613611e38575f5ffd5b803567ffffffffffffffff811115611e4e575f5ffd5b8660208260051b8401011115611e62575f5ffd5b939660209190910195509293505050565b5f5f60208385031215611e84575f5ffd5b823567ffffffffffffffff811115611e9a575f5ffd5b8301601f81018513611eaa575f5ffd5b803567ffffffffffffffff811115611ec0575f5ffd5b856020828401011115611ed1575f5ffd5b6020919091019590945092505050565b5f81518084528060208401602086015e5f602082860101526020601f19601f83011685010191505092915050565b8215158152604060208201525f6108fd6040830184611ee1565b602080825282518282018190525f918401906040840190835b81811015611f695783516001600160a01b0316835260209384019390920191600101611f42565b509095945050505050565b80356001600160a01b0381168114611f8a575f5ffd5b919050565b5f5f60408385031215611fa0575f5ffd5b82359150611fb060208401611f74565b90509250929050565b5f60208284031215611fc9575f5ffd5b611fd282611f74565b9392505050565b634e487b7160e01b5f52602160045260245ffd5b6003811061200957634e487b7160e01b5f52602160045260245ffd5b9052565b5f61014082019050825182526020830151602083015260408301516040830152606083015160608301526080830151608083015260a083015161205360a0840182611fed565b5060c083015161206e60c08401826001600160a01b03169052565b5060e083015160e083015261010083015161010083015261012083015161012083015292915050565b60208101610e8a8284611fed565b5f5f604083850312156120b6575f5ffd5b50508035926020909101359150565b634e487b7160e01b5f52601160045260245ffd5b80820180821115610e8a57610e8a6120c5565b604081016120fa8285611fed565b8260208301529392505050565b634e487b7160e01b5f52601260045260245ffd5b5f8261212957612129612107565b500690565b81810381811115610e8a57610e8a6120c5565b5f8261214f5761214f612107565b500490565b634e487b7160e01b5f52603260045260245ffd5b5f60018201612179576121796120c5565b5060010190565b60208152815160208201526020820151604082015261ffff604083015116606082015263ffffffff606083015116608082015263ffffffff60808301511660a08201525f60a083015160c0808401526108fd60e0840182611ee1565b5f602082840312156121ec575f5ffd5b5051919050565b8082028115828204841417610e8a57610e8a6120c556feb1cccbd310e718666203ac552a77cec64816a2c3bbb51dacc8d2f71b5e3c628ea26469706673582212209ab88aed0d64e7c2a8d13e1035a97caab4a642c13742439307e262b955308daa64736f6c634300081e0033",
  "devdoc": {
    "errors": {
      "ReentrancyGuardReentrantCall()": [
        {
          "details": "Unauthorized reentrant call."
        }
      ]
    },
    "kind": "dev",
    "methods": {
      "performUpkeep(bytes)": {
        "details": "The input to this method should not be trusted, and the caller of the method should not even be restricted to any single registry. Anyone should be able call it, and the input should be validated, there is no guarantee that the data passed in is the performData returned from checkUpkeep. This could happen due to malicious keepers, racing keepers, or simply a state change while the performUpkeep transaction is waiting for confirmation. Always validate the data passed in.",
        "params": {
          "performData": "is the data which was passed back from the checkData simulation. If it is encoded, it can easily be decoded into other types by calling `abi.decode`. This data should not be trusted, and should be validated against the contract's current state."
        }
      }
    },
    "version": 1
  },
  "userdoc": {
    "kind": "user",
    "methods": {
      "acceptOwnership()": {
        "notice": "Allows an ownership transfer to be completed by the recipient."
      },
      "owner()": {
        "notice": "Get the current owner"
      },
      "performUpkeep(bytes)": {
        "notice": "method that is actually executed by the keepers, via the registry. The data returned by the checkUpkeep simulation will be passed into this method to actually be executed."
      },
      "setCoordinator(address)": {
        "notice": "Sets the VRF Coordinator addressThis method should only be callable by the coordinator or contract owner"
      },
      "transferOwnership(address)": {
        "notice": "Allows an owner to begin transferring ownership to a new address."
      }
    },
    "version": 1
  },
  "storageLayout": {
    "storage": [
      {
        "astId": 97,
        "contract": "contracts/OmegaLottery.sol:OmegaLottery",
        "label": "s_owner",
        "offset": 0,
        "slot": "0",
        "type": "t_address"
      },
      {
        "astId": 99,
        "contract": "contracts/OmegaLottery.sol:OmegaLottery",
        "label": "s_pendingOwner",
        "offset": 0,
        "slot": "1",
        "type": "t_address"
      },
      {
        "astId": 299,
        "contract": "contracts/OmegaLottery.sol:OmegaLottery",
        "label": "s_vrfCoordinator",
        "offset": 0,
        "slot": "2",
        "type": "t_contract(IVRFCoordinatorV2Plus)448"
      },
      {
        "astId": 656,
        "contract": "contracts/OmegaLottery.sol:OmegaLottery",
        "label": "_status",
        "offset": 0,
        "slot": "3",
        "type": "t_uint256"
      },
      {
        "astId": 5668,
        "contract": "contracts/OmegaLottery.sol:OmegaLottery",
        "label": "_treasuryAddress",
        "offset": 0,
        "slot": "4",
        "type": "t_address"
      },
      {
        "astId": 5670,
        "contract": "contracts/OmegaLottery.sol:OmegaLottery",
        "label": "_winnerCut",
        "offset": 0,
        "slot": "5",
        "type": "t_uint256"
      },
      {
        "astId": 5801,
        "contract": "contracts/OmegaLottery.sol:OmegaLottery",
        "label": "lotteryIdCounter",
        "offset": 0,
        "slot": "6",
        "type": "t_uint256"
      },
      {
        "astId": 5806,
        "contract": "contracts/OmegaLottery.sol:OmegaLottery",
        "label": "lotteries",
        "offset": 0,
        "slot": "7",
        "type": "t_mapping(t_uint256,t_struct(Lottery)5799_storage)"
      },
      {
        "astId": 5811,
        "contract": "contracts/OmegaLottery.sol:OmegaLottery",
        "label": "lotteryPlayers",
        "offset": 0,
        "slot": "8",
        "type": "t_mapping(t_uint256,t_array(t_address)dyn_storage)"
      },
      {
        "astId": 5817,
        "contract": "contracts/OmegaLottery.sol:OmegaLottery",
        "label": "activePlayerStakes",
        "offset": 0,
        "slot": "9",
        "type": "t_mapping(t_uint256,t_mapping(t_address,t_uint256))"
      },
      {
        "astId": 5823,
        "contract": "contracts/OmegaLottery.sol:OmegaLottery",
        "label": "playerTickets",
        "offset": 0,
        "slot": "10",
        "type": "t_mapping(t_uint256,t_mapping(t_address,t_uint256))"
      },
      {
        "astId": 5827,
        "contract": "contracts/OmegaLottery.sol:OmegaLottery",
        "label": "totalTickets",
        "offset": 0,
        "slot": "11",
        "type": "t_mapping(t_uint256,t_uint256)"
      },
      {
        "astId": 5829,
        "contract": "contracts/OmegaLottery.sol:OmegaLottery",
        "label": "s_subscriptionId",
        "offset": 0,
        "slot": "12",
        "type": "t_uint256"
      },
      {
        "astId": 5831,
        "contract": "contracts/OmegaLottery.sol:OmegaLottery",
        "label": "_keyHash",
        "offset": 0,
        "slot": "13",
        "type": "t_bytes32"
      },
      {
        "astId": 5833,
        "contract": "contracts/OmegaLottery.sol:OmegaLottery",
        "label": "callbackGasLimit",
        "offset": 0,
        "slot": "14",
        "type": "t_uint32"
      },
      {
        "astId": 5835,
        "contract": "contracts/OmegaLottery.sol:OmegaLottery",
        "label": "requestConfirmations",
        "offset": 4,
        "slot": "14",
        "type": "t_uint16"
      },
      {
        "astId": 5837,
        "contract": "contracts/OmegaLottery.sol:OmegaLottery",
        "label": "numWords",
        "offset": 6,
        "slot": "14",
        "type": "t_uint32"
      },
      {
        "astId": 5840,
        "contract": "contracts/OmegaLottery.sol:OmegaLottery",
        "label": "allowableVrfDelay",
        "offset": 0,
        "slot": "15",
        "type": "t_uint256"
      },
      {
        "astId": 5844,
        "contract": "contracts/OmegaLottery.sol:OmegaLottery",
        "label": "requestToLottery",
        "offset": 0,
        "slot": "16",
        "type": "t_mapping(t_uint256,t_uint256)"
      },
      {
        "astId": 5846,
        "contract": "contracts/OmegaLottery.sol:OmegaLottery",
        "label": "lastRequestId",
        "offset": 0,
        "slot": "17",
        "type": "t_uint256"
      }
    ],
    "types": {
      "t_address": {
        "encoding": "inplace",
        "label": "address",
        "numberOfBytes": "20"
      },
      "t_array(t_address)dyn_storage": {
        "base": "t_address",
        "encoding": "dynamic_array",
        "label": "address[]",
        "numberOfBytes": "32"
      },
      "t_bytes32": {
        "encoding": "inplace",
        "label": "bytes32",
        "numberOfBytes": "32"
      },
      "t_contract(IVRFCoordinatorV2Plus)448": {
        "encoding": "inplace",
        "label": "contract IVRFCoordinatorV2Plus",
        "numberOfBytes": "20"
      },
      "t_enum(LotteryStatus)5777": {
        "encoding": "inplace",
        "label": "enum OmegaLottery.LotteryStatus",
        "numberOfBytes": "1"
      },
      "t_mapping(t_address,t_uint256)": {
        "encoding": "mapping",
        "key": "t_address",
        "label": "mapping(address => uint256)",
        "numberOfBytes": "32",
        "value": "t_uint256"
      },
      "t_mapping(t_uint256,t_array(t_address)dyn_storage)": {
        "encoding": "mapping",
        "key": "t_uint256",
        "label": "mapping(uint256 => address[])",
        "numberOfBytes": "32",
        "value": "t_array(t_address)dyn_storage"
      },
      "t_mapping(t_uint256,t_mapping(t_address,t_uint256))": {
        "encoding": "mapping",
        "key": "t_uint256",
        "label": "mapping(uint256 => mapping(address => uint256))",
        "numberOfBytes": "32",
        "value": "t_mapping(t_address,t_uint256)"
      },
      "t_mapping(t_uint256,t_struct(Lottery)5799_storage)": {
        "encoding": "mapping",
        "key": "t_uint256",
        "label": "mapping(uint256 => struct OmegaLottery.Lottery)",
        "numberOfBytes": "32",
        "value": "t_struct(Lottery)5799_storage"
      },
      "t_mapping(t_uint256,t_uint256)": {
        "encoding": "mapping",
        "key": "t_uint256",
        "label": "mapping(uint256 => uint256)",
        "numberOfBytes": "32",
        "value": "t_uint256"
      },
      "t_struct(Lottery)5799_storage": {
        "encoding": "inplace",
        "label": "struct OmegaLottery.Lottery",
        "members": [
          {
            "astId": 5779,
            "contract": "contracts/OmegaLottery.sol:OmegaLottery",
            "label": "id",
            "offset": 0,
            "slot": "0",
            "type": "t_uint256"
          },
          {
            "astId": 5781,
            "contract": "contracts/OmegaLottery.sol:OmegaLottery",
            "label": "entryFee",
            "offset": 0,
            "slot": "1",
            "type": "t_uint256"
          },
          {
            "astId": 5783,
            "contract": "contracts/OmegaLottery.sol:OmegaLottery",
            "label": "startTime",
            "offset": 0,
            "slot": "2",
            "type": "t_uint256"
          },
          {
            "astId": 5785,
            "contract": "contracts/OmegaLottery.sol:OmegaLottery",
            "label": "endTime",
            "offset": 0,
            "slot": "3",
            "type": "t_uint256"
          },
          {
            "astId": 5787,
            "contract": "contracts/OmegaLottery.sol:OmegaLottery",
            "label": "totalPot",
            "offset": 0,
            "slot": "4",
            "type": "t_uint256"
          },
          {
            "astId": 5790,
            "contract": "contracts/OmegaLottery.sol:OmegaLottery",
            "label": "status",
            "offset": 0,
            "slot": "5",
            "type": "t_enum(LotteryStatus)5777"
          },
          {
            "astId": 5792,
            "contract": "contracts/OmegaLottery.sol:OmegaLottery",
            "label": "winner",
            "offset": 1,
            "slot": "5",
            "type": "t_address"
          },
          {
            "astId": 5794,
            "contract": "contracts/OmegaLottery.sol:OmegaLottery",
            "label": "randomValue",
            "offset": 0,
            "slot": "6",
            "type": "t_uint256"
          },
          {
            "astId": 5796,
            "contract": "contracts/OmegaLottery.sol:OmegaLottery",
            "label": "requestId",
            "offset": 0,
            "slot": "7",
            "type": "t_uint256"
          },
          {
            "astId": 5798,
            "contract": "contracts/OmegaLottery.sol:OmegaLottery",
            "label": "vrfRequestTime",
            "offset": 0,
            "slot": "8",
            "type": "t_uint256"
          }
        ],
        "numberOfBytes": "288"
      },
      "t_uint16": {
        "encoding": "inplace",
        "label": "uint16",
        "numberOfBytes": "2"
      },
      "t_uint256": {
        "encoding": "inplace",
        "label": "uint256",
        "numberOfBytes": "32"
      },
      "t_uint32": {
        "encoding": "inplace",
        "label": "uint32",
        "numberOfBytes": "4"
      }
    }
  }
}