{
  "address": "0xA486F49487918333245ebBe1F5ED464fE3c50f8F",
  "abi": [
    {
      "inputs": [
        {
          "internalType": "uint256",
          "name": "subscriptionId",
          "type": "uint256"
        },
        {
          "internalType": "address",
          "name": "vrfCoordinator",
          "type": "address"
        },
        {
          "internalType": "bytes32",
          "name": "_keyHash",
          "type": "bytes32"
        }
      ],
      "stateMutability": "nonpayable",
      "type": "constructor"
    },
    {
      "inputs": [],
      "name": "InsufficientFunds",
      "type": "error"
    },
    {
      "inputs": [],
      "name": "InvalidEntryTime",
      "type": "error"
    },
    {
      "inputs": [],
      "name": "LotteryDNE",
      "type": "error"
    },
    {
      "inputs": [],
      "name": "LotteryEnded",
      "type": "error"
    },
    {
      "inputs": [],
      "name": "LotteryNotEnded",
      "type": "error"
    },
    {
      "inputs": [],
      "name": "LotteryNotOpen",
      "type": "error"
    },
    {
      "inputs": [],
      "name": "LotteryNotStarted",
      "type": "error"
    },
    {
      "inputs": [],
      "name": "NotEnoughPlayers",
      "type": "error"
    },
    {
      "inputs": [
        {
          "internalType": "address",
          "name": "have",
          "type": "address"
        },
        {
          "internalType": "address",
          "name": "want",
          "type": "address"
        }
      ],
      "name": "OnlyCoordinatorCanFulfill",
      "type": "error"
    },
    {
      "inputs": [
        {
          "internalType": "address",
          "name": "have",
          "type": "address"
        },
        {
          "internalType": "address",
          "name": "owner",
          "type": "address"
        },
        {
          "internalType": "address",
          "name": "coordinator",
          "type": "address"
        }
      ],
      "name": "OnlyOwnerOrCoordinator",
      "type": "error"
    },
    {
      "inputs": [],
      "name": "ZeroAddress",
      "type": "error"
    },
    {
      "anonymous": false,
      "inputs": [
        {
          "indexed": false,
          "internalType": "address",
          "name": "vrfCoordinator",
          "type": "address"
        }
      ],
      "name": "CoordinatorSet",
      "type": "event"
    },
    {
      "anonymous": false,
      "inputs": [
        {
          "indexed": true,
          "internalType": "uint256",
          "name": "lotteryId",
          "type": "uint256"
        },
        {
          "indexed": false,
          "internalType": "uint256",
          "name": "entryFee",
          "type": "uint256"
        },
        {
          "indexed": false,
          "internalType": "uint256",
          "name": "startTime",
          "type": "uint256"
        },
        {
          "indexed": false,
          "internalType": "uint256",
          "name": "endTime",
          "type": "uint256"
        }
      ],
      "name": "LotteryCreated",
      "type": "event"
    },
    {
      "anonymous": false,
      "inputs": [
        {
          "indexed": true,
          "internalType": "uint256",
          "name": "lotteryId",
          "type": "uint256"
        },
        {
          "indexed": true,
          "internalType": "address",
          "name": "playerAddress",
          "type": "address"
        },
        {
          "indexed": false,
          "internalType": "uint256",
          "name": "playerStake",
          "type": "uint256"
        }
      ],
      "name": "LotteryEntered",
      "type": "event"
    },
    {
      "anonymous": false,
      "inputs": [
        {
          "indexed": true,
          "internalType": "address",
          "name": "from",
          "type": "address"
        },
        {
          "indexed": true,
          "internalType": "address",
          "name": "to",
          "type": "address"
        }
      ],
      "name": "OwnershipTransferRequested",
      "type": "event"
    },
    {
      "anonymous": false,
      "inputs": [
        {
          "indexed": true,
          "internalType": "address",
          "name": "from",
          "type": "address"
        },
        {
          "indexed": true,
          "internalType": "address",
          "name": "to",
          "type": "address"
        }
      ],
      "name": "OwnershipTransferred",
      "type": "event"
    },
    {
      "inputs": [],
      "name": "acceptOwnership",
      "outputs": [],
      "stateMutability": "nonpayable",
      "type": "function"
    },
    {
      "inputs": [],
      "name": "callbackGasLimit",
      "outputs": [
        {
          "internalType": "uint32",
          "name": "",
          "type": "uint32"
        }
      ],
      "stateMutability": "view",
      "type": "function"
    },
    {
      "inputs": [
        {
          "internalType": "bytes",
          "name": "",
          "type": "bytes"
        }
      ],
      "name": "checkUpkeep",
      "outputs": [
        {
          "internalType": "bool",
          "name": "upkeepNeeded",
          "type": "bool"
        },
        {
          "internalType": "bytes",
          "name": "performData",
          "type": "bytes"
        }
      ],
      "stateMutability": "view",
      "type": "function"
    },
    {
      "inputs": [
        {
          "internalType": "uint256",
          "name": "entryFee",
          "type": "uint256"
        },
        {
          "internalType": "uint256",
          "name": "startTime",
          "type": "uint256"
        },
        {
          "internalType": "uint256",
          "name": "endTime",
          "type": "uint256"
        }
      ],
      "name": "createLottery",
      "outputs": [
        {
          "internalType": "uint256",
          "name": "lotteryId",
          "type": "uint256"
        }
      ],
      "stateMutability": "nonpayable",
      "type": "function"
    },
    {
      "inputs": [
        {
          "internalType": "uint256",
          "name": "lotteryId",
          "type": "uint256"
        }
      ],
      "name": "getLottery",
      "outputs": [
        {
          "components": [
            {
              "internalType": "uint256",
              "name": "id",
              "type": "uint256"
            },
            {
              "internalType": "uint256",
              "name": "entryFee",
              "type": "uint256"
            },
            {
              "internalType": "uint256",
              "name": "startTime",
              "type": "uint256"
            },
            {
              "internalType": "uint256",
              "name": "endTime",
              "type": "uint256"
            },
            {
              "internalType": "uint256",
              "name": "totalPot",
              "type": "uint256"
            },
            {
              "internalType": "enum OmegaLottery.LotteryStatus",
              "name": "status",
              "type": "uint8"
            },
            {
              "internalType": "address",
              "name": "winner",
              "type": "address"
            },
            {
              "internalType": "uint256",
              "name": "randomValue",
              "type": "uint256"
            }
          ],
          "internalType": "struct OmegaLottery.Lottery",
          "name": "lottery",
          "type": "tuple"
        }
      ],
      "stateMutability": "view",
      "type": "function"
    },
    {
      "inputs": [
        {
          "internalType": "uint256",
          "name": "lotteryId",
          "type": "uint256"
        }
      ],
      "name": "getLotteryStatusById",
      "outputs": [
        {
          "internalType": "enum OmegaLottery.LotteryStatus",
          "name": "status",
          "type": "uint8"
        }
      ],
      "stateMutability": "view",
      "type": "function"
    },
    {
      "inputs": [
        {
          "internalType": "uint256",
          "name": "lotteryId",
          "type": "uint256"
        }
      ],
      "name": "joinLottery",
      "outputs": [],
      "stateMutability": "payable",
      "type": "function"
    },
    {
      "inputs": [],
      "name": "keyHash",
      "outputs": [
        {
          "internalType": "bytes32",
          "name": "",
          "type": "bytes32"
        }
      ],
      "stateMutability": "view",
      "type": "function"
    },
    {
      "inputs": [],
      "name": "lastRequestId",
      "outputs": [
        {
          "internalType": "uint256",
          "name": "",
          "type": "uint256"
        }
      ],
      "stateMutability": "view",
      "type": "function"
    },
    {
      "inputs": [],
      "name": "lotteryIdCounter",
      "outputs": [
        {
          "internalType": "uint256",
          "name": "",
          "type": "uint256"
        }
      ],
      "stateMutability": "view",
      "type": "function"
    },
    {
      "inputs": [],
      "name": "numWords",
      "outputs": [
        {
          "internalType": "uint32",
          "name": "",
          "type": "uint32"
        }
      ],
      "stateMutability": "view",
      "type": "function"
    },
    {
      "inputs": [],
      "name": "owner",
      "outputs": [
        {
          "internalType": "address",
          "name": "",
          "type": "address"
        }
      ],
      "stateMutability": "view",
      "type": "function"
    },
    {
      "inputs": [
        {
          "internalType": "bytes",
          "name": "performData",
          "type": "bytes"
        }
      ],
      "name": "performUpkeep",
      "outputs": [],
      "stateMutability": "nonpayable",
      "type": "function"
    },
    {
      "inputs": [
        {
          "internalType": "uint256",
          "name": "requestId",
          "type": "uint256"
        },
        {
          "internalType": "uint256[]",
          "name": "randomWords",
          "type": "uint256[]"
        }
      ],
      "name": "rawFulfillRandomWords",
      "outputs": [],
      "stateMutability": "nonpayable",
      "type": "function"
    },
    {
      "inputs": [],
      "name": "requestConfirmations",
      "outputs": [
        {
          "internalType": "uint16",
          "name": "",
          "type": "uint16"
        }
      ],
      "stateMutability": "view",
      "type": "function"
    },
    {
      "inputs": [
        {
          "internalType": "uint256",
          "name": "",
          "type": "uint256"
        }
      ],
      "name": "requestToLottery",
      "outputs": [
        {
          "internalType": "uint256",
          "name": "",
          "type": "uint256"
        }
      ],
      "stateMutability": "view",
      "type": "function"
    },
    {
      "inputs": [
        {
          "internalType": "uint256",
          "name": "lotteryId",
          "type": "uint256"
        }
      ],
      "name": "requestWinner",
      "outputs": [
        {
          "internalType": "uint256",
          "name": "",
          "type": "uint256"
        }
      ],
      "stateMutability": "nonpayable",
      "type": "function"
    },
    {
      "inputs": [],
      "name": "s_subscriptionId",
      "outputs": [
        {
          "internalType": "uint256",
          "name": "",
          "type": "uint256"
        }
      ],
      "stateMutability": "view",
      "type": "function"
    },
    {
      "inputs": [],
      "name": "s_vrfCoordinator",
      "outputs": [
        {
          "internalType": "contract IVRFCoordinatorV2Plus",
          "name": "",
          "type": "address"
        }
      ],
      "stateMutability": "view",
      "type": "function"
    },
    {
      "inputs": [
        {
          "internalType": "address",
          "name": "_vrfCoordinator",
          "type": "address"
        }
      ],
      "name": "setCoordinator",
      "outputs": [],
      "stateMutability": "nonpayable",
      "type": "function"
    },
    {
      "inputs": [
        {
          "internalType": "address",
          "name": "to",
          "type": "address"
        }
      ],
      "name": "transferOwnership",
      "outputs": [],
      "stateMutability": "nonpayable",
      "type": "function"
    }
  ],
  "transactionHash": "0xa1a1d20a09da3294e6b7870d4234c837a05f9fd7578c03b5bc12424b8e82ea24",
  "args": [
    "5381939440800401583750118558724030775370857736705249184581988840504175043599",
    "0x9DdfaCa8183c41ad55329BdeeD9F6A8d53168B1B",
    "0x787d74caea10b2b357790d5b5247c2f63d1d91572a9846f780606e4d953677ae"
  ],
  "numDeployments": 1,
  "solcInputHash": "74d6428862465d2703cab8426e7be52a",
  "bytecode": "0x608060405234801561000f575f5ffd5b5060405161163638038061163683398101604081905261002e916101d2565b8133805f816100845760405162461bcd60e51b815260206004820152601860248201527f43616e6e6f7420736574206f776e657220746f207a65726f000000000000000060448201526064015b60405180910390fd5b5f80546001600160a01b0319166001600160a01b03848116919091179091558116156100b3576100b38161012a565b5050506001600160a01b0381166100dd5760405163d92e233d60e01b815260040160405180910390fd5b600280546001600160a01b0319166001600160a01b0392909216919091179055600692909255506007556001600355600880546001600160501b0319166601000300030d40179055610214565b336001600160a01b038216036101825760405162461bcd60e51b815260206004820152601760248201527f43616e6e6f74207472616e7366657220746f2073656c66000000000000000000604482015260640161007b565b600180546001600160a01b0319166001600160a01b038381169182179092555f8054604051929316917fed8889f560326eb138920d842192f0eb3dd22b4f139c87a2c57538e05bae12789190a350565b5f5f5f606084860312156101e4575f5ffd5b835160208501519093506001600160a01b0381168114610202575f5ffd5b80925050604084015190509250925092565b611415806102215f395ff3fe608060405260043610610126575f3560e01c80637ccfd7fc116100a857806392e845f61161006d57806392e845f61461031f5780639eccacf61461034b578063b0fb162f1461036a578063d29339f61461039f578063f2fde38b146103dd578063fc2a88c3146103fc575f5ffd5b80637ccfd7fc146102825780637eee9fc1146102a85780638ac00021146102bb5780638da5cb5b146102d05780638ea9811714610300575f5ffd5b80632cffaa60116100ee5780632cffaa60146101ee5780634585e33b1461020d57806361728f391461022c5780636e04ff0d1461024157806379ba50971461026e575f5ffd5b806303bc79601461012a57806315c6e1231461015c5780631fe543e31461018757806324f74697146101a857806325595ce5146101d9575b5f5ffd5b348015610135575f5ffd5b50610149610144366004611095565b610411565b6040519081526020015b60405180910390f35b348015610167575f5ffd5b50610149610176366004611095565b60096020525f908152604090205481565b348015610192575f5ffd5b506101a66101a13660046110ac565b610429565b005b3480156101b3575f5ffd5b506008546101c49063ffffffff1681565b60405163ffffffff9091168152602001610153565b3480156101e4575f5ffd5b5061014960035481565b3480156101f9575f5ffd5b50610149610208366004611126565b61047e565b348015610218575f5ffd5b506101a661022736600461114f565b61053b565b348015610237575f5ffd5b5061014960075481565b34801561024c575f5ffd5b5061026061025b36600461114f565b6105f7565b6040516101539291906111eb565b348015610279575f5ffd5b506101a6610752565b34801561028d575f5ffd5b506008546101c4906601000000000000900463ffffffff1681565b6101a66102b6366004611095565b6107fb565b3480156102c6575f5ffd5b5061014960065481565b3480156102db575f5ffd5b505f546001600160a01b03165b6040516001600160a01b039091168152602001610153565b34801561030b575f5ffd5b506101a661031a36600461120d565b610981565b34801561032a575f5ffd5b5061033e610339366004611095565b610a71565b604051610153919061126e565b348015610356575f5ffd5b506002546102e8906001600160a01b031681565b348015610375575f5ffd5b5060085461038c90640100000000900461ffff1681565b60405161ffff9091168152602001610153565b3480156103aa575f5ffd5b506103d06103b9366004611095565b5f9081526004602052604090206005015460ff1690565b60405161015391906112d9565b3480156103e8575f5ffd5b506101a66103f736600461120d565b610b27565b348015610407575f5ffd5b50610149600a5481565b5f61041a610b3b565b61042382610b8f565b92915050565b6002546001600160a01b0316331461046e5760025460405163073e64fd60e21b81523360048201526001600160a01b0390911660248201526044015b60405180910390fd5b610479838383610cfd565b505050565b5f610487610b3b565b8183106104a7576040516301eb361f60e71b815260040160405180910390fd5b60038054905f6104b6836112fb565b909155505f8181526004602090815260409182902083815560018101889055600281018790556003810186905560058101805460ff1916905582518881529182018790529181018590529192509082907f68b3cc7239912b7f66b9e2f9d93955382d1082297c9e6347beb37217f081650e9060600160405180910390a2509392505050565b5f61054882840184611095565b5f818152600460205260408120600381015492935091421015906001600584015460ff16600481111561057d5761057d61123a565b5f8681526005602052604090205491149150151582801561059b5750815b80156105a45750805b6105e45760405162461bcd60e51b8152602060048201526011602482015270155c1ad9595c081b9bdd081b9959591959607a1b6044820152606401610465565b6105ed85610b8f565b5050505050505050565b5f60605f600160035461060a9190611313565b9050805f0361062b57505060408051602081019091525f808252915061074b565b5f60045f8381526020019081526020015f20604051806101000160405290815f820154815260200160018201548152602001600282015481526020016003820154815260200160048201548152602001600582015f9054906101000a900460ff16600481111561069d5761069d61123a565b60048111156106ae576106ae61123a565b8152600582015461010090046001600160a01b0316602082015260069091015460409091015260608101519091504210155f60018360a0015160048111156106f8576106f861123a565b5f868152600560205260409020549114915015158280156107165750815b801561071f5750805b96508460405160200161073491815260200190565b604051602081830303815290604052955050505050505b9250929050565b6001546001600160a01b031633146107a55760405162461bcd60e51b815260206004820152601660248201527526bab9ba10313290383937b837b9b2b21037bbb732b960511b6044820152606401610465565b5f8054336001600160a01b0319808316821784556001805490911690556040516001600160a01b0390921692909183917f8be0079c531659141344cd1fd0a4f28419497f9722a3daafe3b4186f6b6457e091a350565b5f818152600460205260408120908290036108295760405163c050234760e01b815260040160405180910390fd5b806002015442101561084e57604051632b6d3c4360e11b815260040160405180910390fd5b8060030154421061087257604051639c89a6ed60e01b815260040160405180910390fd5b80600101543410156108975760405163356680b760e01b815260040160405180910390fd5b5f600582015460ff1660048111156108b1576108b161123a565b036108c65760058101805460ff191660011790555b6001600582015460ff1660048111156108e1576108e161123a565b146108ff576040516315ea643d60e21b815260040160405180910390fd5b5f828152600560209081526040822080546001810182559083529082200180546001600160a01b03191633179055600482018054349290610941908490611326565b9091555050604051348152339083907fd89b8985d462dcc0f343f72f43f1cfb87058fcbf847b83b81ca18ce204be941d9060200160405180910390a35050565b5f546001600160a01b031633148015906109a657506002546001600160a01b03163314155b156109f657336109bd5f546001600160a01b031690565b60025460405163061db9c160e01b81526001600160a01b0393841660048201529183166024830152919091166044820152606401610465565b6001600160a01b038116610a1d5760405163d92e233d60e01b815260040160405180910390fd5b600280546001600160a01b0319166001600160a01b0383169081179091556040519081527fd1a6a14209a385a964d036e404cb5cfb71f4000cdb03c9366292430787261be69060200160405180910390a150565b610a79611046565b60045f8381526020019081526020015f20604051806101000160405290815f820154815260200160018201548152602001600282015481526020016003820154815260200160048201548152602001600582015f9054906101000a900460ff166004811115610aea57610aea61123a565b6004811115610afb57610afb61123a565b8152600582015461010090046001600160a01b0316602082015260069091015460409091015292915050565b610b2f610b3b565b610b3881610dce565b50565b5f546001600160a01b03163314610b8d5760405162461bcd60e51b815260206004820152601660248201527527b7363c9031b0b63630b1363290313c9037bbb732b960511b6044820152606401610465565b565b5f8181526004602052604081206003810154421015610bc1576040516301e2c20160e31b815260040160405180910390fd5b6001600582015460ff166004811115610bdc57610bdc61123a565b14610bfa576040516315ea643d60e21b815260040160405180910390fd5b60058101805460ff191660031790556002546040805160c0810182526007548152600654602080830191909152600854640100000000810461ffff168385015263ffffffff8082166060850152660100000000000090910416608083015282519081019092525f82526001600160a01b0390921691639b1c385e9160a0820190610c8390610e76565b8152506040518263ffffffff1660e01b8152600401610ca29190611339565b6020604051808303815f875af1158015610cbe573d5f5f3e3d5ffd5b505050506040513d601f19601f82011682018060405250810190610ce29190611395565b5f818152600960205260409020939093555050600a81905590565b5f8381526009602090815260408083205480845260049092529091206003600582015460ff166004811115610d3457610d3461123a565b14610d715760405162461bcd60e51b815260206004820152600d60248201526c496e76616c696420737461746560981b6044820152606401610465565b5f84845f818110610d8457610d846113ac565b905060200201359050808260060181905550610d9f83610ee7565b5060058201805460ff191660041790555f86815260096020526040812055610dc683610f8e565b505050505050565b336001600160a01b03821603610e265760405162461bcd60e51b815260206004820152601760248201527f43616e6e6f74207472616e7366657220746f2073656c660000000000000000006044820152606401610465565b600180546001600160a01b0319166001600160a01b038381169182179092555f8054604051929316917fed8889f560326eb138920d842192f0eb3dd22b4f139c87a2c57538e05bae12789190a350565b60607f92fd13387c7fe7befbc38d303d6468778fb9731bc4583f17d92989c6fcfdeaaa82604051602401610eaf91511515815260200190565b60408051601f198184030181529190526020810180516001600160e01b03166001600160e01b03199093169290921790915292915050565b5f8181526004602090815260408083206005909252822054808303610f1f5760405163f770074360e01b815260040160405180910390fd5b5f818360060154610f3091906113c0565b5f86815260056020526040902080549192509082908110610f5357610f536113ac565b5f918252602090912001546005939093018054610100600160a81b0319166101006001600160a01b0390951694850217905550909392505050565b5f818152600460208190526040808320600581015492810154915190936101009093046001600160a01b0316929183915f6040518083038185875af1925050503d805f8114610ff8576040519150601f19603f3d011682016040523d82523d5f602084013e610ffd565b606091505b50509050806110405760405162461bcd60e51b815260206004820152600f60248201526e151c985b9cd9995c8819985a5b1959608a1b6044820152606401610465565b50505050565b6040518061010001604052805f81526020015f81526020015f81526020015f81526020015f81526020015f60048111156110825761108261123a565b81525f6020820181905260409091015290565b5f602082840312156110a5575f5ffd5b5035919050565b5f5f5f604084860312156110be575f5ffd5b83359250602084013567ffffffffffffffff8111156110db575f5ffd5b8401601f810186136110eb575f5ffd5b803567ffffffffffffffff811115611101575f5ffd5b8660208260051b8401011115611115575f5ffd5b939660209190910195509293505050565b5f5f5f60608486031215611138575f5ffd5b505081359360208301359350604090920135919050565b5f5f60208385031215611160575f5ffd5b823567ffffffffffffffff811115611176575f5ffd5b8301601f81018513611186575f5ffd5b803567ffffffffffffffff81111561119c575f5ffd5b8560208284010111156111ad575f5ffd5b6020919091019590945092505050565b5f81518084528060208401602086015e5f602082860101526020601f19601f83011685010191505092915050565b8215158152604060208201525f61120560408301846111bd565b949350505050565b5f6020828403121561121d575f5ffd5b81356001600160a01b0381168114611233575f5ffd5b9392505050565b634e487b7160e01b5f52602160045260245ffd5b6005811061126a57634e487b7160e01b5f52602160045260245ffd5b9052565b5f61010082019050825182526020830151602083015260408301516040830152606083015160608301526080830151608083015260a08301516112b460a084018261124e565b5060c0838101516001600160a01b03169083015260e092830151929091019190915290565b60208101610423828461124e565b634e487b7160e01b5f52601160045260245ffd5b5f6001820161130c5761130c6112e7565b5060010190565b81810381811115610423576104236112e7565b80820180821115610423576104236112e7565b60208152815160208201526020820151604082015261ffff604083015116606082015263ffffffff606083015116608082015263ffffffff60808301511660a08201525f60a083015160c08084015261120560e08401826111bd565b5f602082840312156113a5575f5ffd5b5051919050565b634e487b7160e01b5f52603260045260245ffd5b5f826113da57634e487b7160e01b5f52601260045260245ffd5b50069056fea2646970667358221220819a379a611d3ca0138472adf4e35781a42bcc838db18a5d6cec1daaa55dd92e64736f6c634300081e0033",
  "devdoc": {
    "kind": "dev",
    "methods": {
      "performUpkeep(bytes)": {
        "details": "The input to this method should not be trusted, and the caller of the method should not even be restricted to any single registry. Anyone should be able call it, and the input should be validated, there is no guarantee that the data passed in is the performData returned from checkUpkeep. This could happen due to malicious keepers, racing keepers, or simply a state change while the performUpkeep transaction is waiting for confirmation. Always validate the data passed in.",
        "params": {
          "performData": "is the data which was passed back from the checkData simulation. If it is encoded, it can easily be decoded into other types by calling `abi.decode`. This data should not be trusted, and should be validated against the contract's current state."
        }
      }
    },
    "version": 1
  },
  "userdoc": {
    "kind": "user",
    "methods": {
      "acceptOwnership()": {
        "notice": "Allows an ownership transfer to be completed by the recipient."
      },
      "owner()": {
        "notice": "Get the current owner"
      },
      "performUpkeep(bytes)": {
        "notice": "method that is actually executed by the keepers, via the registry. The data returned by the checkUpkeep simulation will be passed into this method to actually be executed."
      },
      "setCoordinator(address)": {
        "notice": "Sets the VRF Coordinator addressThis method should only be callable by the coordinator or contract owner"
      },
      "transferOwnership(address)": {
        "notice": "Allows an owner to begin transferring ownership to a new address."
      }
    },
    "version": 1
  },
  "storageLayout": {
    "storage": [
      {
        "astId": 97,
        "contract": "contracts/lotterylmpl.sol:OmegaLottery",
        "label": "s_owner",
        "offset": 0,
        "slot": "0",
        "type": "t_address"
      },
      {
        "astId": 99,
        "contract": "contracts/lotterylmpl.sol:OmegaLottery",
        "label": "s_pendingOwner",
        "offset": 0,
        "slot": "1",
        "type": "t_address"
      },
      {
        "astId": 299,
        "contract": "contracts/lotterylmpl.sol:OmegaLottery",
        "label": "s_vrfCoordinator",
        "offset": 0,
        "slot": "2",
        "type": "t_contract(IVRFCoordinatorV2Plus)448"
      },
      {
        "astId": 5653,
        "contract": "contracts/lotterylmpl.sol:OmegaLottery",
        "label": "lotteryIdCounter",
        "offset": 0,
        "slot": "3",
        "type": "t_uint256"
      },
      {
        "astId": 5658,
        "contract": "contracts/lotterylmpl.sol:OmegaLottery",
        "label": "lotteries",
        "offset": 0,
        "slot": "4",
        "type": "t_mapping(t_uint256,t_struct(Lottery)5651_storage)"
      },
      {
        "astId": 5663,
        "contract": "contracts/lotterylmpl.sol:OmegaLottery",
        "label": "lotteryPlayers",
        "offset": 0,
        "slot": "5",
        "type": "t_mapping(t_uint256,t_array(t_address)dyn_storage)"
      },
      {
        "astId": 5665,
        "contract": "contracts/lotterylmpl.sol:OmegaLottery",
        "label": "s_subscriptionId",
        "offset": 0,
        "slot": "6",
        "type": "t_uint256"
      },
      {
        "astId": 5667,
        "contract": "contracts/lotterylmpl.sol:OmegaLottery",
        "label": "keyHash",
        "offset": 0,
        "slot": "7",
        "type": "t_bytes32"
      },
      {
        "astId": 5669,
        "contract": "contracts/lotterylmpl.sol:OmegaLottery",
        "label": "callbackGasLimit",
        "offset": 0,
        "slot": "8",
        "type": "t_uint32"
      },
      {
        "astId": 5671,
        "contract": "contracts/lotterylmpl.sol:OmegaLottery",
        "label": "requestConfirmations",
        "offset": 4,
        "slot": "8",
        "type": "t_uint16"
      },
      {
        "astId": 5673,
        "contract": "contracts/lotterylmpl.sol:OmegaLottery",
        "label": "numWords",
        "offset": 6,
        "slot": "8",
        "type": "t_uint32"
      },
      {
        "astId": 5677,
        "contract": "contracts/lotterylmpl.sol:OmegaLottery",
        "label": "requestToLottery",
        "offset": 0,
        "slot": "9",
        "type": "t_mapping(t_uint256,t_uint256)"
      },
      {
        "astId": 5679,
        "contract": "contracts/lotterylmpl.sol:OmegaLottery",
        "label": "lastRequestId",
        "offset": 0,
        "slot": "10",
        "type": "t_uint256"
      }
    ],
    "types": {
      "t_address": {
        "encoding": "inplace",
        "label": "address",
        "numberOfBytes": "20"
      },
      "t_array(t_address)dyn_storage": {
        "base": "t_address",
        "encoding": "dynamic_array",
        "label": "address[]",
        "numberOfBytes": "32"
      },
      "t_bytes32": {
        "encoding": "inplace",
        "label": "bytes32",
        "numberOfBytes": "32"
      },
      "t_contract(IVRFCoordinatorV2Plus)448": {
        "encoding": "inplace",
        "label": "contract IVRFCoordinatorV2Plus",
        "numberOfBytes": "20"
      },
      "t_enum(LotteryStatus)5633": {
        "encoding": "inplace",
        "label": "enum OmegaLottery.LotteryStatus",
        "numberOfBytes": "1"
      },
      "t_mapping(t_uint256,t_array(t_address)dyn_storage)": {
        "encoding": "mapping",
        "key": "t_uint256",
        "label": "mapping(uint256 => address[])",
        "numberOfBytes": "32",
        "value": "t_array(t_address)dyn_storage"
      },
      "t_mapping(t_uint256,t_struct(Lottery)5651_storage)": {
        "encoding": "mapping",
        "key": "t_uint256",
        "label": "mapping(uint256 => struct OmegaLottery.Lottery)",
        "numberOfBytes": "32",
        "value": "t_struct(Lottery)5651_storage"
      },
      "t_mapping(t_uint256,t_uint256)": {
        "encoding": "mapping",
        "key": "t_uint256",
        "label": "mapping(uint256 => uint256)",
        "numberOfBytes": "32",
        "value": "t_uint256"
      },
      "t_struct(Lottery)5651_storage": {
        "encoding": "inplace",
        "label": "struct OmegaLottery.Lottery",
        "members": [
          {
            "astId": 5635,
            "contract": "contracts/lotterylmpl.sol:OmegaLottery",
            "label": "id",
            "offset": 0,
            "slot": "0",
            "type": "t_uint256"
          },
          {
            "astId": 5637,
            "contract": "contracts/lotterylmpl.sol:OmegaLottery",
            "label": "entryFee",
            "offset": 0,
            "slot": "1",
            "type": "t_uint256"
          },
          {
            "astId": 5639,
            "contract": "contracts/lotterylmpl.sol:OmegaLottery",
            "label": "startTime",
            "offset": 0,
            "slot": "2",
            "type": "t_uint256"
          },
          {
            "astId": 5641,
            "contract": "contracts/lotterylmpl.sol:OmegaLottery",
            "label": "endTime",
            "offset": 0,
            "slot": "3",
            "type": "t_uint256"
          },
          {
            "astId": 5643,
            "contract": "contracts/lotterylmpl.sol:OmegaLottery",
            "label": "totalPot",
            "offset": 0,
            "slot": "4",
            "type": "t_uint256"
          },
          {
            "astId": 5646,
            "contract": "contracts/lotterylmpl.sol:OmegaLottery",
            "label": "status",
            "offset": 0,
            "slot": "5",
            "type": "t_enum(LotteryStatus)5633"
          },
          {
            "astId": 5648,
            "contract": "contracts/lotterylmpl.sol:OmegaLottery",
            "label": "winner",
            "offset": 1,
            "slot": "5",
            "type": "t_address"
          },
          {
            "astId": 5650,
            "contract": "contracts/lotterylmpl.sol:OmegaLottery",
            "label": "randomValue",
            "offset": 0,
            "slot": "6",
            "type": "t_uint256"
          }
        ],
        "numberOfBytes": "224"
      },
      "t_uint16": {
        "encoding": "inplace",
        "label": "uint16",
        "numberOfBytes": "2"
      },
      "t_uint256": {
        "encoding": "inplace",
        "label": "uint256",
        "numberOfBytes": "32"
      },
      "t_uint32": {
        "encoding": "inplace",
        "label": "uint32",
        "numberOfBytes": "4"
      }
    }
  }
}