{
  "address": "0x0755B860B28084c180b71BC4B35dc21A676Aa1C4",
  "abi": [
    {
      "inputs": [
        {
          "internalType": "uint256",
          "name": "subscriptionId",
          "type": "uint256"
        }
      ],
      "stateMutability": "nonpayable",
      "type": "constructor"
    },
    {
      "inputs": [
        {
          "internalType": "address",
          "name": "have",
          "type": "address"
        },
        {
          "internalType": "address",
          "name": "want",
          "type": "address"
        }
      ],
      "name": "OnlyCoordinatorCanFulfill",
      "type": "error"
    },
    {
      "inputs": [
        {
          "internalType": "address",
          "name": "have",
          "type": "address"
        },
        {
          "internalType": "address",
          "name": "owner",
          "type": "address"
        },
        {
          "internalType": "address",
          "name": "coordinator",
          "type": "address"
        }
      ],
      "name": "OnlyOwnerOrCoordinator",
      "type": "error"
    },
    {
      "inputs": [],
      "name": "ZeroAddress",
      "type": "error"
    },
    {
      "anonymous": false,
      "inputs": [
        {
          "indexed": false,
          "internalType": "address",
          "name": "vrfCoordinator",
          "type": "address"
        }
      ],
      "name": "CoordinatorSet",
      "type": "event"
    },
    {
      "anonymous": false,
      "inputs": [
        {
          "indexed": true,
          "internalType": "address",
          "name": "from",
          "type": "address"
        },
        {
          "indexed": true,
          "internalType": "address",
          "name": "to",
          "type": "address"
        }
      ],
      "name": "OwnershipTransferRequested",
      "type": "event"
    },
    {
      "anonymous": false,
      "inputs": [
        {
          "indexed": true,
          "internalType": "address",
          "name": "from",
          "type": "address"
        },
        {
          "indexed": true,
          "internalType": "address",
          "name": "to",
          "type": "address"
        }
      ],
      "name": "OwnershipTransferred",
      "type": "event"
    },
    {
      "anonymous": false,
      "inputs": [
        {
          "indexed": false,
          "internalType": "uint256",
          "name": "requestId",
          "type": "uint256"
        },
        {
          "indexed": false,
          "internalType": "uint256[]",
          "name": "randomWords",
          "type": "uint256[]"
        }
      ],
      "name": "RequestFulfilled",
      "type": "event"
    },
    {
      "anonymous": false,
      "inputs": [
        {
          "indexed": false,
          "internalType": "uint256",
          "name": "requestId",
          "type": "uint256"
        },
        {
          "indexed": false,
          "internalType": "uint32",
          "name": "numWords",
          "type": "uint32"
        }
      ],
      "name": "RequestSent",
      "type": "event"
    },
    {
      "inputs": [],
      "name": "acceptOwnership",
      "outputs": [],
      "stateMutability": "nonpayable",
      "type": "function"
    },
    {
      "inputs": [],
      "name": "callbackGasLimit",
      "outputs": [
        {
          "internalType": "uint32",
          "name": "",
          "type": "uint32"
        }
      ],
      "stateMutability": "view",
      "type": "function"
    },
    {
      "inputs": [
        {
          "internalType": "uint256",
          "name": "_requestId",
          "type": "uint256"
        }
      ],
      "name": "getRequestStatus",
      "outputs": [
        {
          "internalType": "bool",
          "name": "fulfilled",
          "type": "bool"
        },
        {
          "internalType": "uint256[]",
          "name": "randomWords",
          "type": "uint256[]"
        }
      ],
      "stateMutability": "view",
      "type": "function"
    },
    {
      "inputs": [],
      "name": "keyHash",
      "outputs": [
        {
          "internalType": "bytes32",
          "name": "",
          "type": "bytes32"
        }
      ],
      "stateMutability": "view",
      "type": "function"
    },
    {
      "inputs": [],
      "name": "lastRequestId",
      "outputs": [
        {
          "internalType": "uint256",
          "name": "",
          "type": "uint256"
        }
      ],
      "stateMutability": "view",
      "type": "function"
    },
    {
      "inputs": [],
      "name": "numWords",
      "outputs": [
        {
          "internalType": "uint32",
          "name": "",
          "type": "uint32"
        }
      ],
      "stateMutability": "view",
      "type": "function"
    },
    {
      "inputs": [],
      "name": "owner",
      "outputs": [
        {
          "internalType": "address",
          "name": "",
          "type": "address"
        }
      ],
      "stateMutability": "view",
      "type": "function"
    },
    {
      "inputs": [
        {
          "internalType": "uint256",
          "name": "requestId",
          "type": "uint256"
        },
        {
          "internalType": "uint256[]",
          "name": "randomWords",
          "type": "uint256[]"
        }
      ],
      "name": "rawFulfillRandomWords",
      "outputs": [],
      "stateMutability": "nonpayable",
      "type": "function"
    },
    {
      "inputs": [],
      "name": "requestConfirmations",
      "outputs": [
        {
          "internalType": "uint16",
          "name": "",
          "type": "uint16"
        }
      ],
      "stateMutability": "view",
      "type": "function"
    },
    {
      "inputs": [
        {
          "internalType": "uint256",
          "name": "",
          "type": "uint256"
        }
      ],
      "name": "requestIds",
      "outputs": [
        {
          "internalType": "uint256",
          "name": "",
          "type": "uint256"
        }
      ],
      "stateMutability": "view",
      "type": "function"
    },
    {
      "inputs": [
        {
          "internalType": "bool",
          "name": "enableNativePayment",
          "type": "bool"
        }
      ],
      "name": "requestRandomWords",
      "outputs": [
        {
          "internalType": "uint256",
          "name": "requestId",
          "type": "uint256"
        }
      ],
      "stateMutability": "nonpayable",
      "type": "function"
    },
    {
      "inputs": [
        {
          "internalType": "uint256",
          "name": "",
          "type": "uint256"
        }
      ],
      "name": "s_requests",
      "outputs": [
        {
          "internalType": "bool",
          "name": "fulfilled",
          "type": "bool"
        },
        {
          "internalType": "bool",
          "name": "exists",
          "type": "bool"
        }
      ],
      "stateMutability": "view",
      "type": "function"
    },
    {
      "inputs": [],
      "name": "s_subscriptionId",
      "outputs": [
        {
          "internalType": "uint256",
          "name": "",
          "type": "uint256"
        }
      ],
      "stateMutability": "view",
      "type": "function"
    },
    {
      "inputs": [],
      "name": "s_vrfCoordinator",
      "outputs": [
        {
          "internalType": "contract IVRFCoordinatorV2Plus",
          "name": "",
          "type": "address"
        }
      ],
      "stateMutability": "view",
      "type": "function"
    },
    {
      "inputs": [
        {
          "internalType": "address",
          "name": "_vrfCoordinator",
          "type": "address"
        }
      ],
      "name": "setCoordinator",
      "outputs": [],
      "stateMutability": "nonpayable",
      "type": "function"
    },
    {
      "inputs": [
        {
          "internalType": "address",
          "name": "to",
          "type": "address"
        }
      ],
      "name": "transferOwnership",
      "outputs": [],
      "stateMutability": "nonpayable",
      "type": "function"
    }
  ],
  "transactionHash": "0x2517921b6a2b0ba2c93ef17f43c5affdb2611dacb3fc3cc3f9f662bcf5f774e0",
  "args": [
    "61929715567171764477812404321678706382866709361907132046623015877255427485329"
  ],
  "numDeployments": 1,
  "solcInputHash": "559a6d21fdba0ab06bacd24305474df0",
  "bytecode": "0x60806040527f787d74caea10b2b357790d5b5247c2f63d1d91572a9846f780606e4d953677ae600755600880546001600160501b031916680300000001000186a017905534801561004e575f5ffd5b50604051610ea3380380610ea383398101604081905261006d91610200565b739ddfaca8183c41ad55329bdeed9f6a8d53168b1b33805f816100d75760405162461bcd60e51b815260206004820152601860248201527f43616e6e6f7420736574206f776e657220746f207a65726f000000000000000060448201526064015b60405180910390fd5b5f80546001600160a01b0319166001600160a01b03848116919091179091558116156101065761010681610158565b5050506001600160a01b0381166101305760405163d92e233d60e01b815260040160405180910390fd5b600280546001600160a01b0319166001600160a01b0392909216919091179055600455610217565b336001600160a01b038216036101b05760405162461bcd60e51b815260206004820152601760248201527f43616e6e6f74207472616e7366657220746f2073656c6600000000000000000060448201526064016100ce565b600180546001600160a01b0319166001600160a01b038381169182179092555f8054604051929316917fed8889f560326eb138920d842192f0eb3dd22b4f139c87a2c57538e05bae12789190a350565b5f60208284031215610210575f5ffd5b5051919050565b610c7f806102245f395ff3fe608060405234801561000f575f5ffd5b50600436106100fb575f3560e01c80638da5cb5b11610093578063b0fb162f11610063578063b0fb162f14610230578063d8a4676f14610258578063f2fde38b14610279578063fc2a88c31461028c575f5ffd5b80638da5cb5b146101a45780638ea98117146101c85780639eccacf6146101db578063a168fa89146101ee575f5ffd5b806379ba5097116100ce57806379ba5097146101685780637ccfd7fc146101705780638796ba8c146101885780638ac000211461019b575f5ffd5b80631fe543e3146100ff57806324f746971461011457806361728f391461013e5780637392a77114610155575b5f5ffd5b61011261010d366004610a44565b610295565b005b6008546101249063ffffffff1681565b60405163ffffffff90911681526020015b60405180910390f35b61014760075481565b604051908152602001610135565b610147610163366004610abe565b6102ea565b6101126104c9565b60085461012490640100000000900463ffffffff1681565b610147610196366004610ae4565b610572565b61014760045481565b5f546001600160a01b03165b6040516001600160a01b039091168152602001610135565b6101126101d6366004610afb565b610591565b6002546101b0906001600160a01b031681565b6102196101fc366004610ae4565b60036020525f908152604090205460ff8082169161010090041682565b604080519215158352901515602083015201610135565b60085461024590600160401b900461ffff1681565b60405161ffff9091168152602001610135565b61026b610266366004610ae4565b610681565b604051610135929190610b21565b610112610287366004610afb565b610770565b61014760065481565b6002546001600160a01b031633146102da5760025460405163073e64fd60e21b81523360048201526001600160a01b0390911660248201526044015b60405180910390fd5b6102e5838383610784565b505050565b5f6102f3610841565b6002546040805160c081018252600754815260045460208083019190915260085461ffff600160401b8204168385015263ffffffff8082166060850152640100000000909104166080830152825190810190925284151582526001600160a01b0390921691639b1c385e9160a082019061036c90610895565b8152506040518263ffffffff1660e01b815260040161038b9190610b70565b6020604051808303815f875af11580156103a7573d5f5f3e3d5ffd5b505050506040513d601f19601f820116820180604052508101906103cb9190610bf3565b604080516060810182525f8082526001602080840182815285518481528083018752858701908152878552600383529590932084518154945161ffff1990951690151561ff0019161761010094151594909402939093178355935180519596509294919361043f93918501929101906109ae565b5050600580546001810182555f919091527f036b6384b5eca791c62761152d0c79bb0604c104a5fb6f4eb0703f3154bb3db0018290555060068190556008546040805183815264010000000090920463ffffffff1660208301527fcc58b13ad3eab50626c6a6300b1d139cd6ebb1688a7cced9461c2f7e762665ee910160405180910390a1919050565b6001546001600160a01b0316331461051c5760405162461bcd60e51b815260206004820152601660248201527526bab9ba10313290383937b837b9b2b21037bbb732b960511b60448201526064016102d1565b5f8054336001600160a01b0319808316821784556001805490911690556040516001600160a01b0390921692909183917f8be0079c531659141344cd1fd0a4f28419497f9722a3daafe3b4186f6b6457e091a350565b60058181548110610581575f80fd5b5f91825260209091200154905081565b5f546001600160a01b031633148015906105b657506002546001600160a01b03163314155b1561060657336105cd5f546001600160a01b031690565b60025460405163061db9c160e01b81526001600160a01b03938416600482015291831660248301529190911660448201526064016102d1565b6001600160a01b03811661062d5760405163d92e233d60e01b815260040160405180910390fd5b600280546001600160a01b0319166001600160a01b0383169081179091556040519081527fd1a6a14209a385a964d036e404cb5cfb71f4000cdb03c9366292430787261be69060200160405180910390a150565b5f81815260036020526040812054606090610100900460ff166106da5760405162461bcd60e51b81526020600482015260116024820152701c995c5d595cdd081b9bdd08199bdd5b99607a1b60448201526064016102d1565b5f8381526003602090815260408083208151606081018352815460ff808216151583526101009091041615158185015260018201805484518187028101870186528181529295939486019383018282801561075257602002820191905f5260205f20905b81548152602001906001019080831161073e575b5050505050815250509050805f015181604001519250925050915091565b610778610841565b61078181610906565b50565b5f83815260036020526040902054610100900460ff166107da5760405162461bcd60e51b81526020600482015260116024820152701c995c5d595cdd081b9bdd08199bdd5b99607a1b60448201526064016102d1565b5f838152600360205260409020805460ff191660019081178255610800910183836109f7565b507ffe2e2d779dba245964d4e3ef9b994be63856fd568bf7d3ca9e224755cb1bd54d83838360405161083493929190610c0a565b60405180910390a1505050565b5f546001600160a01b031633146108935760405162461bcd60e51b815260206004820152601660248201527527b7363c9031b0b63630b1363290313c9037bbb732b960511b60448201526064016102d1565b565b60607f92fd13387c7fe7befbc38d303d6468778fb9731bc4583f17d92989c6fcfdeaaa826040516024016108ce91511515815260200190565b60408051601f198184030181529190526020810180516001600160e01b03166001600160e01b03199093169290921790915292915050565b336001600160a01b0382160361095e5760405162461bcd60e51b815260206004820152601760248201527f43616e6e6f74207472616e7366657220746f2073656c6600000000000000000060448201526064016102d1565b600180546001600160a01b0319166001600160a01b038381169182179092555f8054604051929316917fed8889f560326eb138920d842192f0eb3dd22b4f139c87a2c57538e05bae12789190a350565b828054828255905f5260205f209081019282156109e7579160200282015b828111156109e75782518255916020019190600101906109cc565b506109f3929150610a30565b5090565b828054828255905f5260205f209081019282156109e7579160200282015b828111156109e7578235825591602001919060010190610a15565b5b808211156109f3575f8155600101610a31565b5f5f5f60408486031215610a56575f5ffd5b83359250602084013567ffffffffffffffff811115610a73575f5ffd5b8401601f81018613610a83575f5ffd5b803567ffffffffffffffff811115610a99575f5ffd5b8660208260051b8401011115610aad575f5ffd5b939660209190910195509293505050565b5f60208284031215610ace575f5ffd5b81358015158114610add575f5ffd5b9392505050565b5f60208284031215610af4575f5ffd5b5035919050565b5f60208284031215610b0b575f5ffd5b81356001600160a01b0381168114610add575f5ffd5b5f604082018415158352604060208401528084518083526060850191506020860192505f5b81811015610b64578351835260209384019390920191600101610b46565b50909695505050505050565b60208152815160208201526020820151604082015261ffff604083015116606082015263ffffffff606083015116608082015263ffffffff60808301511660a08201525f60a083015160c08084015280518060e0850152806020830161010086015e5f6101008286010152610100601f19601f8301168501019250505092915050565b5f60208284031215610c03575f5ffd5b5051919050565b83815260406020820181905281018290525f6001600160fb1b03831115610c2f575f5ffd5b8260051b808560608501379190910160600194935050505056fea2646970667358221220b7d07ff3cc360765b5ede5b9423460efc40b8b6b22890dda4df1a6e65845013764736f6c634300081e0033",
  "devdoc": {
    "kind": "dev",
    "methods": {},
    "version": 1
  },
  "userdoc": {
    "kind": "user",
    "methods": {
      "acceptOwnership()": {
        "notice": "Allows an ownership transfer to be completed by the recipient."
      },
      "owner()": {
        "notice": "Get the current owner"
      },
      "setCoordinator(address)": {
        "notice": "Sets the VRF Coordinator addressThis method should only be callable by the coordinator or contract owner"
      },
      "transferOwnership(address)": {
        "notice": "Allows an owner to begin transferring ownership to a new address."
      }
    },
    "version": 1
  },
  "storageLayout": {
    "storage": [
      {
        "astId": 29,
        "contract": "contracts/randomNumber.sol:randomNumber",
        "label": "s_owner",
        "offset": 0,
        "slot": "0",
        "type": "t_address"
      },
      {
        "astId": 31,
        "contract": "contracts/randomNumber.sol:randomNumber",
        "label": "s_pendingOwner",
        "offset": 0,
        "slot": "1",
        "type": "t_address"
      },
      {
        "astId": 231,
        "contract": "contracts/randomNumber.sol:randomNumber",
        "label": "s_vrfCoordinator",
        "offset": 0,
        "slot": "2",
        "type": "t_contract(IVRFCoordinatorV2Plus)380"
      },
      {
        "astId": 7253,
        "contract": "contracts/randomNumber.sol:randomNumber",
        "label": "s_requests",
        "offset": 0,
        "slot": "3",
        "type": "t_mapping(t_uint256,t_struct(RequestStatus)7248_storage)"
      },
      {
        "astId": 7255,
        "contract": "contracts/randomNumber.sol:randomNumber",
        "label": "s_subscriptionId",
        "offset": 0,
        "slot": "4",
        "type": "t_uint256"
      },
      {
        "astId": 7258,
        "contract": "contracts/randomNumber.sol:randomNumber",
        "label": "requestIds",
        "offset": 0,
        "slot": "5",
        "type": "t_array(t_uint256)dyn_storage"
      },
      {
        "astId": 7260,
        "contract": "contracts/randomNumber.sol:randomNumber",
        "label": "lastRequestId",
        "offset": 0,
        "slot": "6",
        "type": "t_uint256"
      },
      {
        "astId": 7263,
        "contract": "contracts/randomNumber.sol:randomNumber",
        "label": "keyHash",
        "offset": 0,
        "slot": "7",
        "type": "t_bytes32"
      },
      {
        "astId": 7266,
        "contract": "contracts/randomNumber.sol:randomNumber",
        "label": "callbackGasLimit",
        "offset": 0,
        "slot": "8",
        "type": "t_uint32"
      },
      {
        "astId": 7269,
        "contract": "contracts/randomNumber.sol:randomNumber",
        "label": "numWords",
        "offset": 4,
        "slot": "8",
        "type": "t_uint32"
      },
      {
        "astId": 7272,
        "contract": "contracts/randomNumber.sol:randomNumber",
        "label": "requestConfirmations",
        "offset": 8,
        "slot": "8",
        "type": "t_uint16"
      }
    ],
    "types": {
      "t_address": {
        "encoding": "inplace",
        "label": "address",
        "numberOfBytes": "20"
      },
      "t_array(t_uint256)dyn_storage": {
        "base": "t_uint256",
        "encoding": "dynamic_array",
        "label": "uint256[]",
        "numberOfBytes": "32"
      },
      "t_bool": {
        "encoding": "inplace",
        "label": "bool",
        "numberOfBytes": "1"
      },
      "t_bytes32": {
        "encoding": "inplace",
        "label": "bytes32",
        "numberOfBytes": "32"
      },
      "t_contract(IVRFCoordinatorV2Plus)380": {
        "encoding": "inplace",
        "label": "contract IVRFCoordinatorV2Plus",
        "numberOfBytes": "20"
      },
      "t_mapping(t_uint256,t_struct(RequestStatus)7248_storage)": {
        "encoding": "mapping",
        "key": "t_uint256",
        "label": "mapping(uint256 => struct randomNumber.RequestStatus)",
        "numberOfBytes": "32",
        "value": "t_struct(RequestStatus)7248_storage"
      },
      "t_struct(RequestStatus)7248_storage": {
        "encoding": "inplace",
        "label": "struct randomNumber.RequestStatus",
        "members": [
          {
            "astId": 7242,
            "contract": "contracts/randomNumber.sol:randomNumber",
            "label": "fulfilled",
            "offset": 0,
            "slot": "0",
            "type": "t_bool"
          },
          {
            "astId": 7244,
            "contract": "contracts/randomNumber.sol:randomNumber",
            "label": "exists",
            "offset": 1,
            "slot": "0",
            "type": "t_bool"
          },
          {
            "astId": 7247,
            "contract": "contracts/randomNumber.sol:randomNumber",
            "label": "randomWords",
            "offset": 0,
            "slot": "1",
            "type": "t_array(t_uint256)dyn_storage"
          }
        ],
        "numberOfBytes": "64"
      },
      "t_uint16": {
        "encoding": "inplace",
        "label": "uint16",
        "numberOfBytes": "2"
      },
      "t_uint256": {
        "encoding": "inplace",
        "label": "uint256",
        "numberOfBytes": "32"
      },
      "t_uint32": {
        "encoding": "inplace",
        "label": "uint32",
        "numberOfBytes": "4"
      }
    }
  }
}